:020000040001F9
:10400000583B002035410100474101004941010072
:1040100000000000000000000000000000000000A0
:104020000000000000000000000000004B41010003
:1040300000000000000000004D4101004F41010060
:104040005141010051410100514101005141010024
:10405000514101000000000065C70100514101000D
:104060005141010051410100514101005141010004
:1040700051410100514101005141010051410100F4
:1040800051410100E1B201005141010051410100E3
:10409000F7B20100B1C9010013CB01005141010089
:1040A00051410100514101000000000000000000EA
:1040B0000000000000000000000000000000000000
:1040C000034885460EF07CFC00480047AF540100D1
:1040D000583B0020401E00BF00BF00BF00BF00BF14
:1040E00000BF00BF00BF00BF00BF00BF00BFF1D1D5
:1040F00070470000401E00BF00BF00BF00BF00BFF0
:1041000000BF00BF00BF00BF00BF00BF00BFF1D1B4
:1041100070470000401E00BF00BF00BF00BF00BFCF
:1041200000BF00BF00BF00BF00BF00BF00BFF1D194
:10413000704700000748026803210A4302600648EE
:10414000804706480047FEE7FEE7FEE7FEE7FEE79A
:10415000FEE700002405004069410100C140010064
:10416000234922480860704710B500F01DF8002868
:1041700005D021491F484860C8132049886120485C
:10418000018CC9B201290ED1818C09070BD1018D97
:104190000906090F042906D1808D0006000F02D1FF
:1041A00018490120886010BD1548018CC9B2012949
:1041B00017D1818C090714D1018D09060A0F03D18B
:1041C000828D1206120F0ED0090F012903D1828DA4
:1041D0001206120F07D0032903D1808D0006000FAD
:1041E00001D0002070470120704700000024F40037
:1041F00000200020DFFF07C000050040006C0040E9
:10420000C00F00F000060040704708B50BF0BBFC83
:104210000A2006F055FE684612DF002803D0F5A2FA
:10422000F74900F011F868460078002803D0F02024
:104230003ADF002039DFBFF34F8FF349F148C86000
:10424000BFF34F8F00BFFDE710B5002809D0082845
:1042500007D0EE49884204D0ED49884201D0FFF7EB
:10426000D4FF10BD70B5EB4CEB4920780870E079B5
:1042700000280DD10125E5710CF097F96420A0729A
:1042800004F023FEE549002008706072E572257293
:1042900070BDE34A10B50120E14918321060121DCB
:1042A0001060DF4A10321060121D1060DC4A0C32C0
:1042B00010600860DB490822CA608860AE200CF0FC
:1042C00014F9AE200CF011F910BD10B5FFF7E1FFA5
:1042D000D04800214172C17104F00EFD10BD10B52F
:1042E0000021D14A084608F053FC10BD10B5C9485A
:1042F0000022418DCD48006807F0BCF8002804D0AA
:10430000FF21CBA27131FFF79FFF10BD10B5C74849
:10431000006807F0EAF8002804D0FF21C4A2783131
:10432000FFF792FF10BD0A460146C4488CE710B55E
:10433000642006F0C5FDC24805F05BFD002804D0EE
:10434000FF21ACA29731FFF77FFFBD4805F05BFD71
:10435000002804D0FF21A7A29A31FFF775FF10BDF6
:1043600070B583780021B74CB74DAA4A012B16D0FF
:10437000042B01D0002B11D15078137C18430DD1A0
:10438000907D01280AD12170AD482970202180300C
:104390000DF0FDFE9F4801212030017070BD0078B6
:1043A000002803D00228F9D1918570BDD078137C04
:1043B0001843FAD1907D0128F7D11E2090852170F5
:1043C0002970907C0028F0D00220907070BDF8B564
:1043D0000746904E4079394634460831002520344E
:1043E000012810D0002825D19548FA8880300DF09A
:1043F000B5FE9348F988803045542178002919D0BA
:104400002570002721E0FA881C2A06D91C228D4835
:104410000DF0A4FE8B48057703E08A48521C0DF08E
:104420009DFEB078002805D06570A570E570B57068
:1044300001207070F8BD82488030C15D0A46413A63
:10444000192A01D82031C1557F1C7D4880300DF0DC
:10445000BDFEB842EFD87A487CA180300DF0A2FEB4
:10446000002807D0F07C0028E4D001207071607033
:10447000A5700DE0724879A180300DF093FE002800
:1044800008D0307D0028D5D0012070716570A070F3
:10449000E570F8BD6A4874A180300DF083FE0028F5
:1044A000F7D0707D0028F4D0012070716570A57080
:1044B000E070F8BD10B50168564C002909D00129FB
:1044C00020D0083002291AD0032901D1FFF77FFF3D
:1044D00010BD504901222031087A10430872C143AF
:1044E000890706D08007F3D44A49E08D38317EDF52
:1044F00010BD00215F4A084608F04AFB10BDFFF7D7
:104500002FFF10BD607E022803D90020A0750BF09C
:104510009EFDA07D0128F4D1E08D57498842F0D05E
:10452000617E491C6176132176DF0028E9D031A233
:104530005249FFF789FE10BD10B5044601464048B8
:1045400005F08DFB206802280DD13249022220316E
:10455000087A10430872C043800704D10021454AFD
:10456000084608F015FB10BD2D4901207431086084
:104570002C494207CA602A4A083210600420886029
:1045800027490020403108607047014600B50020EF
:10459000092901D8084600BD10390B000EF075FA44
:1045A0004A2770727476787A7C7E802626262626A4
:1045B00026828486888A8C8E9092942626262626A9
:1045C0002696989A9C9EA0A2A4A6A82626262626D1
:1045D00026AAACAEB0B2B4B6B8BABC2626262626F9
:1045E00026BEC0C2C4C6C8CACCCED026D3E70A20D5
:1045F00000BD00002E2E5C6D61696E2E6300000010
:104600007D0900000400FA0500ED00E00330000021
:1046100001340000042000207C230020C82000205A
:104620000007005000050050CB420100B8200020D8
:104630002E2E5C6D61696E2E63000000EFBEADDE54
:10464000E424002084250020812000206170706C0B
:10465000652E6D6F62696C65736D730074656E6352
:10466000656E742E6D71710074656E63656E742E67
:1046700078696E002F430100FFFF00006D0200000B
:104680000B2000BD0C2000BD0D2000BD0E2000BD84
:104690000F2000BD102000BD112000BD122000BD64
:1046A000132000BD142000BD152000BD162000BD44
:1046B000172000BD182000BD192000BD1A2000BD24
:1046C0001B2000BD1C2000BD1D2000BD1E2000BD04
:1046D0001F2000BD202000BD212000BD222000BDE4
:1046E000232000BD242000BD252000BD262000BDC4
:1046F000272000BD282000BD292000BD2A2000BDA4
:104700002B2000BD2C2000BD2D2000BD2E2000BD83
:104710002F2000BD302000BD312000BD322000BD63
:10472000332000BD342000BD352000BD362000BD43
:10473000372000BD382000BD392000BD3A2000BD23
:104740003B2000BD014600B50020092901D80846DC
:1047500000BD0A390B000EF098F9321B1D1F2123F2
:104760002527292B2D2F31333537393B3D3F414309
:104770004547494B4D4F51535557595B5D5F6163F9
:104780006567696B6D6F71737577797B7D1ADFE78C
:10479000102000BD112000BD122000BD132000BD5F
:1047A000142000BD152000BD162000BD172000BD3F
:1047B000182000BD192000BD202000BD212000BD13
:1047C000222000BD232000BD242000BD252000BDE7
:1047D000262000BD272000BD282000BD292000BDC7
:1047E000302000BD312000BD322000BD332000BD8F
:1047F000342000BD352000BD362000BD372000BD6F
:10480000382000BD392000BD402000BD412000BD42
:10481000422000BD432000BD442000BD452000BD16
:10482000462000BD472000BD482000BD492000BDF6
:10483000502000BD512000BD522000BD532000BDBE
:10484000542000BD552000BD562000BD572000BD9E
:10485000582000BD592000BD010710B5090F0929D6
:1048600001D9002010BD0028FCD07D23020BDB0005
:104870005A4303051B0F64246343D2180006000F3C
:104880000A2358431018401880B210BDFFB583B0FA
:104890000F460CA970C9FFF778FE694608703846C4
:1048A000FFF773FE694648701046FFF76EFE6946D3
:1048B00088700698FFF769FE6946C8702046FFF7C2
:1048C00064FE694608710121E8B249034018FFF708
:1048D000C3FF6946C8803046FFF757FE69464871F6
:1048E00068460AF0C6FC0AF035FC012007B0F0BDAE
:1048F000FEB50746FA480E4601681D46144668464E
:104900000AF02EFC68460078FFF71CFF38706846F6
:104910004078FFF717FF307068468078FFF712FF86
:1049200020706846C488002C31D07D21C900204603
:104930000DF0EAFB0603084664210DF0E5FB0002DA
:104940003618642120460DF0DFFB08460A210DF0E1
:10495000DBFB000136180A2120460DF0D5FB70184C
:1049600080B20999C0B2088068460079FFF7EAFE74
:10497000089908706846C078FFF7E4FE287068461A
:104980004079FFF7DFFE0A9908700120FEBD002084
:10499000E7E730B53222012400280AD0002512288A
:1049A0000AD003071B0F092B01D8242807D910466A
:1049B00030BD0C70002030BD0D700C2030BD0209E0
:1049C000122807D90A20521E4243D018801EC0B2B6
:1049D0000D7030BD0A204243D018C0B20C7030BDFB
:1049E00001461339062902D90F39022901D8123894
:1049F00004E001462039012902D81838C0B27047B6
:104A0000014610390229FAD9411E0829F7D9002890
:104A100001D00020704712207047002805D0B14A0D
:104A20001146491EFDD1401EFAD17047F7B58AB034
:104A300008A8467A14463046FFF70EFFC5B2002E8E
:104A400005D0152E03D0302E01D0452E03D10821DC
:104A5000A5480DF09CFBA54801786846C08D00294B
:104A6000C0B2089008A8007B079008A8C07A0690FA
:104A700008A8807A059047D028460E38102802D31F
:104A800010380E2801D2C5B203E02C2D01D32C3DE5
:104A9000EDB29748944F007800282ED0002D2FD0EB
:104AA00008F0DFF969087854102120460DF06FFBFB
:104AB00008982070079860700698A07005980AF012
:104AC0003BFC850030460AF037FC0F210DF01CFB43
:104AD0002818E070FF202071387860717878A07114
:104AE000B878E071F8782072387960727879A072BD
:104AF000B879E072F879207366E0E807CED1D3E7A1
:104B000008F0AFF93870CFE7694604A809F0DDFF77
:104B1000002000212154401C1028FADB7548016850
:104B2000754800680DF0C0FB02906F480E380068B1
:104B30000168724800680D1A089820700798607024
:104B40000698A07005980AF0F7FB870030460AF037
:104B5000F3FB0F210DF0D8FA3818E0700020207117
:104B6000674902980DF0A8FB0DF0EFFD6071000A97
:104B7000A071E571280A207200987D216843C90060
:104B80000DF0C2FA6072000AA0725E495E4B0968BD
:104B90001A680020914201D9881A80B2E072000A96
:104BA0002073142E05D0292E03D0442E01D0592E67
:104BB0000AD14D480E3800680268504802604E48DD
:104BC00002684C480260196001200DB0F0BD01463A
:104BD000090700B5090F00200B000DF056FF100962
:104BE0000B0D0F11131517191B1D1F212123250A4A
:104BF000302000BD312000BD322000BD332000BD7B
:104C0000342000BD352000BD362000BD372000BD5A
:104C1000382000BD392000BD412000BD422000BD2C
:104C2000432000BD442000BD452000BD10B58AB022
:104C30006946112008723548026A4A70016A0A0AF8
:104C400069468A70016A0A0C6946CA70016A0A0ECE
:104C500069460A71426A4A71406AC021000A0843E3
:104C60006946887100240C70684670DF002804D003
:104C70004F21274A0901FFF7E7FA03A80BF0A7F82D
:104C800024A00BF0F1FB03A80BF0EEFB24A00BF02B
:104C9000EBFB69461120087203A80DF097FA82B267
:104CA00003A902A87CDF002803D0194A1D49FFF799
:104CB000CBFA08942821684609940184782141841C
:104CC000FF2184849131C18408A87ADF002804D0B0
:104CD00029210F4A4901FFF7B7FA0AB010BD0000B9
:104CE0005023002036070000422000206A200020C8
:104CF00069200020A02000204823002098200020C8
:104D00000000C842AC2000209C2000204000001081
:104D1000F44501004465764E616D653A000000007F
:104D20000A000000160500001FB5FE48416B00296F
:104D300023D0012141631421FB480DF028FAFA48E1
:104D40000021017041600172F84A02824182684686
:104D500007F0FEF9002803D0F54AF649FFF774FA88
:104D6000062000F0F9FCF04873DF002804D0F14978
:104D7000EF4A1131FFF768FA1FBD0221DAE7ED496A
:104D800010B5EB4A4231FFF75FFAA7E710B5B9213A
:104D9000E74AC900FFF758FAA0E7E64910B5E44A28
:104DA0007B31FFF751FA99E7F8B502880024DD4D11
:104DB000382A02D16C772C77EC760126172A34D06A
:104DC0000CDCDD49102A1AD0112A31D0132A15D152
:104DD000D44AE88D383200217FDF08E0192A49D013
:104DE000392A01D0552A09D11321E88D76DF0746EB
:104DF000380003D0CE4AD149FFF726FAF8BD2E730A
:104E00000C70AE716C638088E885C64820300472EF
:104E1000A87D012801D10A20E876C9480078002839
:104E2000ECD1FFF71FFA6C72F8BDFFF780FAF8BDFE
:104E30002C730C702C710020AC76C043E88507F011
:104E4000AAF8002804D0BD49B94A4139FFF7FCF956
:104E500004F0F6FF071E04D0B849B54A3E39FFF703
:104E6000F3F92C76EC75A87B0028C1D1FFF75CFF25
:104E70006E73BDE780790028D9D1A87B0028D6D1F0
:104E8000FFF752FF6E73F8BD10B504460088102876
:104E900005D1A5483822214614300DF05FF920468F
:104EA00007F01DF8204606F0CDF89E48817D0129C7
:104EB00005D0017E002902D1C07D002804D09A4887
:104EC0002146343804F0D3FE97482146503805F087
:104ED0009AF82046FFF768FF00E710B505F0DFFA03
:104EE000FCE610B58F4986B02731964862DF00286E
:104EF00004D039218E4A4901FFF7A6F904AC924843
:104F0000A11C62DF002804D08C49894A8931FFF74F
:104F10009BF9A11C8D4862DF002804D08749844A90
:104F20008C31FFF791F9A11C894862DF002804D079
:104F300082497F4A8F31FFF787F97B48202120384B
:104F40000DF025F9834800902020029076486946AC
:104F500020380390804801907348343804F0F5FEFF
:104F6000002804D07549724A9C31FFF76DF904F0AE
:104F700071FF002804D071496D4AA531FFF764F92B
:104F80006948343804F049FF002804D06B49684A66
:104F9000A931FFF759F906B0A0E610B56149012023
:104FA00008766148143006F09AFF5F4914310846CC
:104FB000483804F05CFE91E610B56849012008709D
:104FC000674908700AF0C4FD88E60A2801D230302B
:104FD00000E03730C0B27047F1B590B0042207202E
:104FE0000521019206240327029104900122022345
:104FF00000970394782110460BF0E8F80BF0C3F902
:1050000058495A2008700BF0C3F85748002505701E
:105010005648057056480580564805705648057034
:105020000BF025F80BF04DF8544805700BF077F8AD
:105030005349082008700BF08DF8FFF7BDFF0020E2
:105040000BF005F8374E2046B57534700AF0EEFFC8
:105050000124B474F47434757475234622462146D1
:1050600020460AF0A0FF684604741D214174AC215B
:1050700081745024C47446260675059904980AF074
:1050800016FD3146204609F01BFD00200AF04CFFBA
:105090003C491E2008703C49022308703B493A46AF
:1050A0000F703B490B7001460AF057FF39A103C945
:1050B000089010980991002802D008A80AF007FD6E
:1050C00068464575072605758675C57505760024FD
:1050D00068460475069905980AF0AFFD641C052C16
:1050E000F6DB684685770676457686763021C1768A
:1050F00064218183079906980AF0F1FD27484068EA
:105100000F900FA80AF04BFE2449142208310AA878
:105110000DF024F822A10AA80DF06CF822A10AA82B
:1051200046E00000042000201825002008080000A8
:10513000F44501007C0500006E2000209A06000066
:105140006A200020E02A0200F02A0200002B020060
:10515000102B0200B54401007F4D010067200020A4
:105160006420002059230020F5200020F620002094
:10517000FE200020F7200020F820002057230020E8
:10518000582300207720002078200020792000205C
:105190007A20002088888888FFFF0000C42A020047
:1051A0004A2D5374796C65004C69666556697400C4
:1051B0000DF020F80AA80AF002FEFE480AF019FED7
:1051C00011B0F0BD1CB58022002110436A46009149
:1051D00010700A4601910321002009F0FFFD01AB88
:1051E0006A46022109F04AFE6A4650791CBD7047A2
:1051F0001CB50446F0480079002813D00020802117
:105200000C43694600900C7002460321019009F09E
:10521000E5FD01AB6A46022109F030FE6946052032
:1052200008561CBD09F0B2FE684604710023012235
:1052300001A9062009F012FF0028F7D001231A4621
:105240006946072009F00AFF0028F7D06846007871
:1052500044B20AF085F820461CBDF0B50027A3B083
:105260003846FFF7AFFFC0B2D34D00246871032862
:105270007ED0FA287CD02C71CF48103009F04BFD3D
:105280000020FFF7B5FF6871684604750AF06DF9F4
:1052900001F0CFFF05A80AF036FC6846007D022524
:1052A000022808D001273846FFF796FE68460575A4
:1052B00005A80AF0BBFC14A80AF0A3FF0AF073FFCC
:1052C0000AF038FF0AF051FF0AF0E3FE0AF00FFF80
:1052D000B9480A380AF0C3FEB74E203EB07D012817
:1052E00000D0B475B44820380AF0A8FE30781E28E3
:1052F00001D906203070B04B0B3B5A1E511E481E80
:105300000AF06AFEAC480F380AF017FEAB480AF004
:1053100078FDAB4BAB4AAC49AC480AF02BFEAB492D
:1053200008781E280CD91E200870A749032208708F
:10533000A4492B460A70A2490D7001460AF00DFEE1
:105340000AF0E9FB02F086FD3846152604270028FE
:105350001CD003A80AF065FD6846408A10388A28E8
:1053600009D26846007C122805D86846C07B00E058
:1053700009E0312858D96846468201210174C17379
:105380008473467358E00120287175E710A80AF06D
:1053900096FB10A80179C07809F092FB03A80AF0E7
:1053A000D2F806A900200AF0C4F983490698103102
:1053B0000A681060864A0F981060864A1060096873
:1053C00085480A680260854A07981060844A099BEC
:1053D00013600A6883490A608349086008A8807DD1
:1053E00000280FD108A8C07D00280BD16846468749
:1053F00008A807762021C1750821817530214175E3
:105400000475457608A8427E6846418F08A8007E4C
:105410006B4607C308A8C37D827D417D007DFFF7F1
:1054200035FA0028EED029E0684646820774072145
:10543000C17384733321417304734574418AEAB2A2
:10544000007C6D4607C56846C37B827B417B007B41
:10545000FFF71CFA58491031086804605F4804607F
:105460005D4804605A4804605A4804605C4804601F
:10547000086801685B4801605B4804600AF0ADFBA6
:1054800012A80AF0CEFC0222139912980AF0ECFB43
:1054900023B0F0BD70B50BF04AFA01247D25ED0074
:1054A000284605F00DFD641C052CF9DB70BD88B0A5
:1054B000FFF75AF80020FFF785FE3F498871FFF794
:1054C000CCFEFFF751F803F010FD4849012007F02A
:1054D000A3F9002803D0464A4649FEF7B5FE03F07B
:1054E000D8FE45490C20086000F07FF93F4A0A21A8
:1054F0006432082007F038FB002804D03C4A3F49BA
:105500003C3AFEF7A1FE05F031F8002804D03949F5
:10551000374AA139FEF798FE274D0024203DAC778D
:1055200037480190374802906846847006F049FE7B
:10553000002804D02F492E4A9039FEF785FEC82056
:105540000AF0AEFFFFF772FBFFF7CBFC2E4800908E
:1055500069462E4804F08BFD002804D02549244AD2
:105560006A31FEF771FE1C2168460CF010FE052022
:10557000400401908010029000940321684601735A
:10558000C48101260674224806900594684605F0F9
:10559000D0FC002804D01749154AC539FEF754FE3F
:1055A00000F011F91B4A0521012007F00BFA002831
:1055B00036D031E010270000242000207020002089
:1055C0007A200020792000207820002077200020F9
:1055D000AC2000209C200020A82000204823002090
:1055E0000021002098200020A0200020B4230020CB
:1055F00030460100A4060000440700503D0A0000A8
:10560000394501009B4D0100DB770100C8240020D3
:105610008D4D0100DDB90100854A8649FEF714FE73
:1056200003F0B6F9002009F061FA01200BF004FB49
:105630001E200AF033FEFEF759FE03F046FCFFF78A
:1056400073FB7D4804707D480470002009F04EFA19
:105650006E73002002F03EFD794801210022C9034B
:10566000006805F007FF06F0D0FFEE77FEF7FAFDC1
:105670001420687202F0A1FB7248047002F05AFB19
:1056800003F01FFC704FA87B002810D0E87B002897
:105690000ED1EE73FEF73AFE03F015FC74DF6C7367
:1056A000002801D074DF6C7309F048FB00E0EC7354
:1056B000387800281FD00AF078FF00200AF042FF57
:1056C00062A2022100200AF0CCFF0AF05CFA0A2054
:1056D00005F0F6FB684612DF002803D0544A604903
:1056E000FEF7B2FD68460078002804D0F0203ADFCB
:1056F000A02039DF2ADF07F0C1FA3DDF0028C2D041
:105700004C494B4A2231FEF79FFDBCE77CB505466C
:1057100054480C46007900280ED068460570417048
:10572000002002460321019009F058FB01AB6A46B4
:10573000022109F0A3FB7CBD09F028FC6846057036
:105740004470012302226946062009F087FC0028E4
:10575000F7D009F005FE7CBD00B5A1B0062010A968
:1057600008704148414900681190487B097B00025C
:105770000843694688873B4808A9C07988773C2157
:1057800068460CF004FD012069464871088110A9A3
:1057900003916946888211A90691694688840FA8F9
:1057A0000A903C2112A80CF0F2FC0220129012A9DF
:1057B000684605F068FA002803D01D4A2C49FEF718
:1057C00043FD21B000BD27491E201831088088788C
:1057D00001221043E1221040DF220C30104088707B
:1057E0000720C87010200871704710B500235022A0
:1057F0002049082007F060F9002804D00D490C4A20
:105800001639FEF721FD1C4807F073F9002804D073
:105810000849074A1139FEF717FD184807F071F9D2
:10582000002804D00349024A0D39FEF70DFD10BDD2
:1058300030460100F30600006A2000204D230020BE
:10584000BC20002084250020682000204669726D5D
:1058500077617265205570677261646500000000B1
:105860009509000024200020C42A0200E02A02003A
:105870004C050000C8230020894E0100DB4E0100CA
:105880000021C173C27B435C491CD218C2730F292B
:10589000F8DBD0B2704770B50D460446FFF7F0FF55
:1058A000E0732A462146FE4804F007FC70BD10B59F
:1058B00001461422FA4804F000FC10BD70B50D46F4
:1058C0000446FFF7DDFFE0732A462146F44804F062
:1058D000F4FB082805D0002803D0F2A24A21FEF7E5
:1058E000B3FC70BDF0B5F34987B04978002902D107
:1058F000F14A0121117001F0A9FF00256C46002832
:10590000009501950295039568D0ED48EB49006834
:105910000CF0D2FC0CF019FF09226946E94E0A701E
:105920003268116849024B0E69464B7011880B0AA8
:1059300069468B701278CA70E3490A6851024B0EAF
:1059400069460B71130A4B718A71020CCA71020A03
:105950000A72487204A905A809F0B7F83768049ECE
:1059600038687D217043C9000CF0CEFB000C6946FD
:10597000887238687D217043C9000CF0C5FB000AAD
:105980006946C87238687D217043C9000CF0BCFBC1
:1059900069460873CD483C2100680CF0B5FB020A4B
:1059A00069464A738873CD7300206A46D17B225CB6
:1059B000401C89186A46D1730F28F6DB102269460D
:1059C000B74804F07AFB082805D0002803D0B5A218
:1059D0007621FEF739FC012007B0F0BD8920207048
:1059E0000020E17B225C401C8918E1730F28F8DB62
:1059F00010222146AA4804F060FB082805D00028A0
:105A000003D0A8A28721FEF71FFC0020E4E7F0B531
:105A1000AF4889B00078002878D000206E4605464F
:105A20003554401C1028FBDB43203070F020A94C7B
:105A3000707008A920780870A7480A4604A9007861
:105A40000AF02BF808A909782778B94201D1002873
:105A500029D00E21B01C0CF09AFBA04801786846B2
:105A600081709F4801786846C1709E4801786846F9
:105A70000171477100206A46D17B325C401C891855
:105A80006A46D1730F28F6DB10226946844804F079
:105A900014FB9549954E884225D131780A2922D2A6
:105AA000491C317027E08D480178684681708C4828
:105AB00001786846C1708B4801786846017147716A
:105AC000017D8171417DC171817D0172C17D417214
:105AD000017E8172417EC172817E0173C17E4173FC
:105AE000017F8173C6E72178491C21703570082831
:105AF00005D0002803D06BA2EE21FEF7A5FB20788D
:105B00005F2803D9724805702570357009B0F0BD63
:105B100070B5064667488EB0407800282DD13046D3
:105B200001F094FE00246D46002805D0707804A989
:105B300009F0FFFD002823D0C3216846017044709E
:105B400002202C54401C1028FBDB00206A46D17B2D
:105B50002A5C401C89186A46D1730F28F6DB102294
:105B600069464F4804F0A9FA082806D0002804D056
:105B7000FF214CA23F31FEF767FB00200EB070BD45
:105B8000049800281CD0544970780870684653491E
:105B9000408E087008A85249007C087008A8514936
:105BA000C07B08704A490120087051480460FFF723
:105BB0002EFFFFF72CFFFFF72AFFFFF728FF20E05B
:105BC0002C54401C1028FBDB432168460170FF2148
:105BD000417000206A46D17B2A5C401C89186A46C5
:105BE000D1730F28F6DB102269462D4804F065FAC0
:105BF000082806D0002804D0FF212AA21831FEF779
:105C000023FB0120BAE7F0B58FB0064601F01EFE77
:105C100000246D46002805D0707804A909F089FD9C
:105C2000002823D0872168460170447002202C543C
:105C3000401C1028FBDB00206A46D17B2A5C401CFC
:105C400089186A46D1730F28F6DB1022694614487A
:105C500004F033FA082806D0002804D0FF2111A24E
:105C6000AD31FEF7F1FA00200FB0F0BD6946401CDF
:105C7000CC731028FADB07270F704C70707888708F
:105C8000488EC87008A9087C6946087108A9C87BB5
:105C9000694648710498000C88710498000A29E04C
:105CA000C82400202E2E5C6576656E74426C652ECD
:105CB0006300000064200020082000200000C8428B
:105CC0004823002034200020AC20002000210020A8
:105CD0001E200020C4200020502000205C20002036
:105CE0005D2000205E20002003300000C520002041
:105CF00058200020C871049808720D98000C487252
:105D00000D98000A88720D98C872F94905980CF030
:105D1000D3FA0CF01AFD020C69460A73020A4A73A0
:105D2000887300206A46D17B2A5C401C89186A4629
:105D3000D1730F28F6DB10226946EE4804F0BDF956
:105D4000082806D0002804D0FF21EB4A6F31FEF767
:105D50007BFA684607700121417071788170418E2D
:105D6000C17008A8017C6846017108A8C17B68461B
:105D7000417106980CF0E9FC002829D0020C694614
:105D80008A71020ACA7108723C2107980CF0BCF9AA
:105D9000020A69464A728872CC72002003946A46ED
:105DA000D17B2A5C401C89186A46D1730F28F6DB28
:105DB00010226946CF4804F080F9082806D0002850
:105DC00004D0FF21CC4A9731FEF73EFA01204BE781
:105DD00068468471C4710472D6E7F0B58BB006468C
:105DE00001F034FDA32100256C46002872D001206B
:105DF000305600284EDB7278052A4BD22274B178D7
:105E00006174F178A1743179E1740022052125755E
:105E10000120735C012B02D0002B06D00AE0237D09
:105E2000074697403B43237504E0277D0346934094
:105E30009F432775491C521C0C29EADB05990498DD
:105E400009F0FBFE07A809F0ECFF02220899079869
:105E500009F00AFF2321684601704570022025548D
:105E6000401C1028FBDB00206A46D17B225C401CD2
:105E700089186A46D1730F28F6DB102269469D48BF
:105E800004F01BF9082821D000281FD0FF219A4ACE
:105E9000FA3119E02170657002202554401C102849
:105EA000FBDB0020E17B225C401C8A182146E27368
:105EB0000F28F7DB10228F4804F0FFF8082805D0E0
:105EC000002803D08C4A8D49FEF7BEF901200BB0A3
:105ED000F0BDFFE72554401C1028FBDB217000209B
:105EE000E17B225C401C8918E1730F28F8DB10224B
:105EF0002146804804F0E1F8082806D0002804D0A4
:105F00007E497D4A1631FEF79FF90020DFE770B524
:105F100086B0054601F09AFC00266C46002833D076
:105F200069782174A9786174E978A1742979E17498
:105F30006979A175A979A1820599049809F0CFFE24
:105F400000202654401C1028FBDB252168460170E8
:105F5000C67300206A46D17B225C401C89186A46C1
:105F6000D1730F28F6DB10226946624804F0A5F8C9
:105F7000082806D0002804D060495F4A4131FEF766
:105F800063F9012006B070BD2654401C1028FBDBCD
:105F9000A5212170E6730020E17B225C401C89185A
:105FA000E1730F28F8DB10222146524804F085F8EF
:105FB000082806D0002804D050494F4A5531FEF732
:105FC00043F90020DEE71FB501F040FC00246946DC
:105FD000002841D001204A4B4207DA60494A10703C
:105FE0004948847100200C54401C1028FBDB12220D
:105FF0000A70CC730020CA7B0B5C401CD218CA7399
:106000000F28F8DB10223B4804F057F8082806D088
:10601000002804D03949384A9E31FEF715F93B482B
:106020003B21008876DF082806D0002804D02B21E9
:10603000314A0901FEF708F974DF35480470002081
:10604000FEF7CAFF00200AF07DFAFEF748F909F0D2
:1060500058FA012004B010BD0C54401C1028FBDB82
:1060600092220A70CC730020CA7B0B5C401CD218B1
:10607000CA730F28F8DB10221E4804F01EF8082807
:1060800006D0002804D01D491B4ABE31FEF7DCF8BB
:106090000020DFE71FB501F0D9FB00216A46002888
:1060A0003BD000201154401C1028FBDB3823137018
:1060B0001548D173C07800282CD051700020D17BB6
:1060C000135C401CC9181346D1730F28F7DB10224C
:1060D0001946084803F0F1FF082806D0002804D02C
:1060E0000649054AE131FEF7AFF80120B2E70000AA
:1060F0000000C842C8240020A45C01000D0200007A
:1061000000050050122000206420002032200020D2
:106110001120002001205070D0E71154401C10289D
:10612000FBDBB8231370D1730020D17B135C401CC0
:10613000C9181346D1730F28F7DB10221946FE4801
:1061400003F0BBFF082805D0002803D0FB4AFC4918
:10615000FEF77AF800207DE77FB5064601F076FB72
:1061600000246D46002804D0307809F06BFB00282D
:1061700022D000940194029408216846039401708F
:10618000C47300206A46D17B2A5C401C89186A4689
:10619000D1730F28F6DB10226946E74803F08DFF24
:1061A000082806D0002804D03721E44A0901FEF768
:1061B0004BF8002004B070BD0094019402940421B7
:1061C000684603940170C47300206A46D17B2A5C40
:1061D000401C89186A46D1730F28F6DB10226946E5
:1061E000D54803F06AFF082806D0002804D0D44917
:1061F000D24A5C31FEF728F80120DBE77FB506467E
:1062000001F024FB00246D4600282FD07178CD4882
:10621000002902D0012903D003E00121C17000E070
:10622000C47009F095FC00202C54401C1028FBDBA6
:10623000372168460170C47300206A46D17B2A5C0E
:10624000401C89186A46D1730F28F6DB1022694674
:10625000B94803F032FF082806D0002804D0B84916
:10626000B64A9031FDF7F0FF0120A3E72C54401C03
:106270001028FBDBB7212970EC730020E97B2A5C36
:10628000401C8918E9730F28F8DB10222946AA4818
:1062900003F013FF082806D0002804D0A849A74A15
:1062A000A431FDF7D1FF002084E77FB50024064626
:1062B000009401940294039401F0C8FA6D460028FA
:1062C0002CD07078B178000409024018F1789D4E06
:1062D0004018F06009F08DFDB470012001F0FAFE65
:1062E0000B2168460170C47300206A46D17B2A5C8A
:1062F000401C89186A46D1730F28F6DB10226946C4
:106300008D4803F0DAFE082806D0002804D08C4916
:106310008A4AC331FDF798FF01204BE72C54401CFB
:106320001028FBDB8B212970EC730020E97B2A5CB1
:10633000401C8918E9730F28F8DB102229467E4893
:1063400003F0BBFE082806D0002804D07C497B4A15
:10635000D731FDF779FF00202CE77FB500250095A8
:1063600001950295039501F071FA6C46002828D03A
:1063700074480C3009F045FD4B206946087071489F
:10638000C068020C4A70020A8A70C870CD7300207F
:106390006A46D17B225C401C89186A46D1730F285B
:1063A000F6DB10226946644803F087FE082806D011
:1063B000002804D06249614AF331FDF745FF01200E
:1063C000F8E62554401C0F28FBDBCB212170E57338
:1063D0000020E17B225C401C8918E1730F28F8DB68
:1063E00010222146544803F068FE082805D00028F2
:1063F00003D0524A5449FDF727FF0020DAE67FB563
:10640000064601F023FA00246D46002805D0717875
:106410004C48002921D0012922D000202C54401CB6
:106420001028FBDB8F212970EC730020E97B2A5CAC
:10643000401C8918E9730F28F8DB102229463E48D2
:1064400003F03BFE082806D0002804D03E493B4A12
:10645000A631FDF7F9FE0020ACE60121017000E055
:10646000047009F075FB00202C54401C1028FBDB45
:106470000F2168460170C47300206A46D17B2A5CF4
:10648000401C89186A46D1730F28F6DB1022694632
:10649000294803F012FE082806D0002804D02A4913
:1064A000264A9031FDF7D0FE012083E61FB501F0AA
:1064B000CDF900216A46002829D000201154401C43
:1064C0001028FBDB4F2010701E4813460078002870
:1064D0001AD05170D1730020D97B135C401CC918AD
:1064E0001346D1730F28F7DB10221946124803F028
:1064F000E4FD082806D0002804D013490F4AC8310B
:10650000FDF7A2FE0120A5E501205870E2E7115435
:10651000401C1028FBDBCF231370D1730020D17BEC
:10652000135C401CC9181346D1730F28F7DB1022E7
:10653000194601480AE00000C8240020A45C0100BC
:1065400002030000642000200904000003F0B5FDF0
:10655000082805D0002803D0FA4AFB49FDF774FE4D
:10656000002077E530B587B001F070F900256C4662
:10657000002832D000202554401C1028FBDB04A842
:1065800008F0E1FF6846017C4170417C8170817CAC
:10659000C170C17C0171817D4171818A8171262127
:1065A0000170C57300206A46D17B225C401C8918AB
:1065B0006A46D1730F28F6DB10226946E34803F0E0
:1065C0007CFD082806D0002804D0DF49DD4A4C3184
:1065D000FDF73AFE012007B030BD2554401C1028BD
:1065E000FBDBA6212170E5730020E17B225C401CCF
:1065F0008918E1730F28F8DB10222146D34803F0F5
:106600005CFD082806D0002804D0CF49CD4A60316F
:10661000FDF71AFE0020DEE730B589B0054601F02F
:1066200015F9A42200216C46002866D000202154D0
:10663000401C1028FBDB0120285600283DDB687831
:1066400005283AD20020E17B225C401C89182246B2
:10665000E1730F28F7DB24211170687804A909F091
:10666000F9FA6846017C4170417C8170817CC1707F
:10667000C17C0171017D05200122431F0D46DD40D3
:10668000EB0700D02254401C0C28F6DB00206A46A1
:10669000D17B225C401C89186A46D1730F28F6DB37
:1066A00010226946A94803F008FD082822D00028D6
:1066B00020D0A549A34A9F311AE000202154401C54
:1066C0001028FBDB227061700020E17B225C401C03
:1066D0008918E1730F28F8DB102221469B4803F04C
:1066E000ECFC082806D0002804D09749954AB4311C
:1066F000FDF7AAFD012009B030BD2154401C10282F
:10670000FBDB22700020E17B225C401C8918E173D6
:106710000F28F8DB102221468C4803F0CEFC082815
:1067200006D0002804D08849864AC931FDF78CFD7F
:106730000020E0E770B58EB0064601F087F800252E
:106740006C46002837D0707804A908F0F2FF0021C9
:106750006554491C1029FBDB717868464170418EF5
:10676000817008A8017C6846C17008A8C17B684692
:10677000017108A801786846017308210170C5738A
:1067800000206A46D17B225C401C89186A46D1737E
:106790000F28F6DB102269466C4803F08EFC0828AF
:1067A00006D0002804D06849664AED31FDF74CFD5B
:1067B00001200EB070BD2554401C1028FBDB882141
:1067C0002170E5730020E17B225C401C8918E17395
:1067D0000F28F8DB102221465C4803F06EFC0828E5
:1067E00005D0002803D0574A5949FDF72DFD002058
:1067F000DFE7F0B587B0054601F028F882270026CC
:106800006C4600284FD06979287908F059F900289A
:1068100018D06846077001202654401C0F28FBDB67
:106820006846C77310226946484803F046FC0828AA
:1068300006D0002804D04649424A3A31FDF704FD0B
:1068400007B0F0BD697868460174A9784174E978A9
:1068500081742A79C27469790175104608F030F99B
:106860000599049809F023F900202654401C1028AB
:10687000FBDB02206946087000206A46D17B225C5F
:10688000401C89186A46D1730F28F6DB102269462E
:106890002E4803F012FC0828D2D00028D0D02C4972
:1068A000284A2C31CAE7277001202654401C0F28A3
:1068B000FBDBE77310222146244803F0FEFB082887
:1068C000BED00028BCD022491E4A4B31B6E730B5B5
:1068D00087B000F0BBFF00256C4600283AD004A822
:1068E00009F0EDF800216554491C1029FBDB422119
:1068F00068460170017C4170417C8170817CC1706F
:10690000C17C0171017D4171A01D09F0E7F80021F2
:106910006A46D07B625C491C80186A46D0730F2996
:10692000F6DB10226946094803F0C7FB082806D0A9
:10693000002804D0CB21034AC900FDF785FC0120C3
:1069400049E60000A45C0100E5040000C824002022
:10695000E7050000C221217001202554401C0F28AA
:10696000FBDBE17310222146F94803F0A6FB08285F
:1069700005D0002803D0F74AF749FDF765FC002051
:1069800029E6F0B58DB0054600F060FF002866D01E
:1069900007AC601D471C08AE099009980290E31CE3
:1069A000A21C611C0197009607A8FDF7A1FF002813
:1069B000F3D06C786846C480AE780671EF78C77003
:1069C000297981700A91697941700991A9790170D9
:1069D0000B91ED794571002C1ED0002E1CD0C07F8C
:1069E000B84207D108A80078B04203D16846408C6D
:1069F000A04206D0D949012048710899079809F0AA
:106A000008FA009601943B4602950A9A09990B9858
:106A1000FDF73CFF0028F4D00020054603A90D54E3
:106A2000401C1028FBDB012468460473C476102246
:106A3000C74803F042FB082806D0002804D0C64906
:106A4000C44A2E31FDF700FCC5480470FDF70AFC6E
:106A5000C448C5490570062008700DB0F0BD8122FC
:106A6000684602730120002103AB1954401C0F2813
:106A7000FBDB6846C27610221946B54803F01DFBC1
:106A80000828EAD00028E8D0B349B24A4631FDF7D9
:106A9000DBFBE2E730B589B000F0D8FE002503AC9F
:106AA00000283ED008A8013008AA411C0092831E8D
:106AB0000290C21E019107A8411CFDF719FF412059
:106AC0006946087301202554401C1028FBDB08464A
:106AD000498C417308A8017868468173C17FC173EE
:106AE000817F0174417F4174017F817408A84178DE
:106AF0006846C17400206A46D17E225C401C891819
:106B00006A46D1760F28F6DB102203A9904803F0DD
:106B1000D4FA082825D0002823D08F498D4A6B311C
:106B20001DE0C1206946087301202554401C10282F
:106B3000FBDB00206A46D17E225C401C89186A4635
:106B4000D1760F28F6DB10222146814803F0B5FAF2
:106B5000082806D0002804D07F497E4A7D31FDF701
:106B600073FBC8E5F0B587B000F070FE00246D46F9
:106B7000002877D000202C54401C1028FBDB7C48D8
:106B80007A4900680BF098FB0BF0DFFD482269465C
:106B9000784E0A70326811680B0C69464B70118888
:106BA0000B0A69468B701278CA7073490A685102E1
:106BB0004B0E69460B71130A4B718A71020CCA7134
:106BC000020A0A72487204A905A807F07EFF376816
:106BD000049E3868704340D07D21C9000BF094FAC0
:106BE000000C6946887238687D217043C9000BF03B
:106BF0008BFA000A6946C87238687D217043C90063
:106C00000BF082FA694608735C4900200A68002A82
:106C100003D03C2110460BF077FA020A69464A730A
:106C20008873CC7300206A46D17B2A5C401C89188B
:106C30006A46D1730F28F6DB10226946444803F0F8
:106C40003CFA082806D0002804D04349414AB6310E
:106C5000FDF7FAFA0120F3E504E068468472C47295
:106C60000473D1E72C54401C1028FBDBC821297089
:106C7000EC730020E97B2A5C401C8918E9730F281B
:106C8000F8DB10222946324803F017FA082806D00C
:106C9000002804D030492F4ACA31FDF7D5FA002028
:106CA000CEE57FB500F0D2FD00216C4600280091B2
:106CB00001910291039130D01320207001F07DF8F2
:106CC0002F4D288801F004F86A4650706421288806
:106CD0000BF01AFA6A46907208460A210BF014FA71
:106CE000000140186A46D0720020D17B225C401C13
:106CF00089186A46D1730F28F7DB102269461448B9
:106D000003F0DBF9082805D0002803D0114A1D49FB
:106D1000FDF79AFA012004B070BD93222270E1734E
:106D20000020E17B225C401C8918E1730F28F8DB0E
:106D300010222146064803F0C0F9082806D0002892
:106D400004D01049034A1131FDF77EFA0020E2E732
:106D5000C8240020A45C0100690600006420002013
:106D60000F2000200D2000207C2300200000C842BE
:106D70004823002034200020AC20002000210020E7
:106D800060200020A10700001FB500F05FFD002279
:106D90006946002800920192029203922DD022208F
:106DA0000870FE48426AC023120A1A434A70426AB7
:106DB0000B468A70026A120ECA70026A120C0A71BD
:106DC000026A120A4A71006A88710020DA7B0B5C41
:106DD000401CD2180B46CA730F28F7DB1022F0486C
:106DE00003F06BF9082805D0002803D0ED4AEE49DE
:106DF000FDF72AFA012004B010BDA2230B70CA735C
:106E00000020CA7B0B5C401CD218CA730F28F8DB29
:106E10001022E34803F051F9082806D0002804D0D6
:106E2000E149E04A1131FDF70FFA0020E3E71FB511
:106E300000200090019002901822694603900A7089
:106E4000C873CA7B0B5C401CD218CA730F28F8DBCE
:106E50001022D34803F031F9082806D0002804D0C6
:106E6000D149D04A2631FDF7EFF91FBD7FB500F0BB
:106E7000EDFC00246D4600280094019402940394D4
:106E800039D027202870362068703320A87034202D
:106E9000E87001202871182068711020A871252041
:106EA000E8712946DE2008720020FEF7A1F9694644
:106EB000487202A80522BD4902300BF04FF969461D
:106EC000CC7300206A46D17B2A5C401C89186A4634
:106ED000D1730F28F6DB10226946B14803F0EDF8B4
:106EE000082806D0002804D0AF49AE4A4A31FDF741
:106EF000ABF901200FE7A7212970EC730020E97B93
:106F00002A5C401C8A182946EA730F28F7DB1022F6
:106F1000A34803F0D2F8082806D0002804D0A249DC
:106F2000A04A5B31FDF790F90020F4E61FB500217F
:106F3000009101910291DD236A4603911370507014
:106F4000D17308466946CA7B0B5C401CD218CA73D1
:106F50000F28F8DB1022924803F0AFF8082806D07B
:106F6000002804D090498F4A7431FDF76DF91FBD98
:106F70001FB500F06BFC00226946002820D00020DD
:106F80000A54401C1028FBDB2E230B70CA73002010
:106F9000CA7B0B5C401CD218CA730F28F8DB102286
:106FA0007F4803F08AF8082806D0002804D07E49DC
:106FB0007C4A9231FDF748F9FDF727F901201AE7DD
:106FC000AE2300920192029203920B70CA730020CA
:106FD000CA7B0B5C401CD218CA730F28F8DB102246
:106FE0006F4803F06AF8082806D0002804D06E49DC
:106FF0006C4AA431FDF728F90020FCE6F0B585B015
:10700000044600F023FC002500287DD0684F694825
:107010003D7005706848694A05706178684B0120C9
:1070200000290BD0674E012910D0022929D003294D
:1070300040D0042955D0052953D053E01080A278C0
:107040000C2A30D818706048057022E018705E482D
:107050000570A078182802D91820A07001E00C282B
:1070600002D9C0B20C38A070C2B2E11C30460BF09D
:1070700075F8A07885554F483D7005704E480570ED
:1070800030E01080A2780C2A0DD838704F491D705E
:1070900008704C48E11C0C380BF060F84948A178A6
:1070A0000C3845541EE047480C22E11C0C380BF00C
:1070B00055F817E04549387008701D70A0781828F9
:1070C00002D91820A07001E00C2802D9C0B20C38F7
:1070D000A070C2B2E11C30460BF040F8A078855594
:1070E00000E015804D20694608700121684645542E
:1070F000491C1029FBDBC5730021C27B435C491C82
:10710000D218C2730F2900E010E0F6DB014610220E
:10711000234802F0D2FF082805D0002803D0214AD6
:107120002B49FDF791F8012005B0F0BD00950195C0
:107130000295CD21684603950170C573002069460C
:10714000CA7B0B5C401CD218CA730F28F8DB1022D4
:10715000134802F0B2FF082806D0002804D01C49CA
:10716000104A1131FDF770F80020DDE77FB500F01F
:107170006DFB00256C46002800950195029503954E
:107180003CD046212170601C08F010FB6846C57396
:1071900000216A46D07B625C80181BE04000001032
:1071A000C8240020A45C0100D10700004023002077
:1071B000252000202620002027200020302000202D
:1071C0000520002090250020092000200720002015
:1071D000F50800006A46491CD0730F29D9DB10223C
:1071E0006946F94802F069FF082805D0002803D055
:1071F000F64AF749FDF728F801208CE5C6212170F1
:10720000E5730020E17B225C401C8918E1730F28A4
:10721000F8DB10222146EC4802F04FFF082806D088
:10722000002804D0EA49E94A1031FDF70DF80020A2
:1072300071E50020E7490246C300C318401CC0B2F4
:10724000CA540528F8D37047F0B585B00024054628
:10725000009401940294039400F0F8FA6E4600281A
:107260003DD0102030706978DB4F012001292ED0ED
:107270003C70AA78D949012A2BD00C70EB78D84AF7
:10728000012B28D014702D79D64B012D25D01C70E0
:107290001B7812780978387808F085FE00206A4655
:1072A000D17B325C401C89186A46D1730F28F6DB0B
:1072B00010226946C44802F000FF082805D00028C3
:1072C00003D0C24AC849FCF7BFFF01202CE7387041
:1072D000CFE70870D2E71070D5E71870D8E7C02163
:1072E0003170F4730020F17B325C401C8918F1731B
:1072F0000F28F8DB10223146B34802F0DEFE0828E2
:1073000006D0002804D0B849B04A1031FCF79CFFE1
:10731000002009E71FB5002400940194029403940F
:1073200000F094FA6946002824D01122AA480A7075
:107330000278AA484A700278A9488A700278A94857
:10734000CA7002780A710020CA7B0B5C401CD218FC
:10735000CA730F28F8DB10229B4802F0AEFE082803
:1073600006D0002804D0A049984A2D31FCF76CFFC4
:10737000012040E5C1220A70CC730020CA7B0B5C5F
:10738000401CD218CA730F28F8DB10228E4802F076
:1073900094FE082806D0002804D093498B4A3D313A
:1073A000FCF752FF002026E57FB500250646009534
:1073B00001950295039500F049FA6C46002833D0F8
:1073C00070788A4E012807D03570307808F03FFE7B
:1073D0003078012803D00AE001203070F5E78448B6
:1073E000844900780978084301D1FDF7D6FD58217A
:1073F00068460170C57300206A46D17B225C401C40
:1074000089186A46D1730F28F6DB102269466E4848
:1074100002F053FE082805D0002803D06B4A7649B5
:10742000FCF712FF012076E4C8212170E5730020EB
:10743000E17B225C401C8918E1730F28F8DB1022E5
:107440002146614802F039FE082806D0002804D001
:1074500069495E4A1031FCF7F7FE00205BE41FB576
:107460000020009001900290039055216846017021
:1074700062480178684641701021FEF71FFA1FBD6F
:107480001FB50022009201920292039243785C4958
:107490004A2B17D18378532B14D1C378542B11D195
:1074A0000379592B0ED143794C2B0BD18379452B82
:1074B00008D1C379462B05D1037A422B02D1407AF9
:1074C0004B2809D08A722A2268460270897A417054
:1074D0001021FEF7F3F98EE401208872F3E770B50E
:1074E00088B0047869460C740146082202A80AF0A4
:1074F00035FEE0002518374E0922A91968460AF022
:107500002DFE00247455694608780126362879D066
:1075100032DC112877D00CDC03000BF0B6FA11171F
:10752000869517DEE617A6AE9DA2C2171717CEEDF9
:107530001700252868D013DC222873D008DC122815
:1075400071D0132802D10846FFF7ABFB08B070BD1D
:10755000232869D02428F9D10846FFF75DF8F5E71C
:1075600026286ED027286DD02A286CD02E28EDD161
:107570000846FFF7FDFCE9E74B2871D00EDC3738F1
:1075800003000BF082FA129EA20A0A0A0AE70A0A0C
:107590000A5665760A0AC2965A0AD7E7962870D024
:1075A00033DC58286ED007DC4D286CD04F28CDD165
:1075B0000846FEF77BFFC9E7592871D07728C5D167
:1075C000084600F05CFAC1E7C8240020A45C010072
:1075D00076090000A4250020162000201720002096
:1075E0001820002019200020DE0B00001A200020A7
:1075F0001C2000201B200020F60C00007C20002016
:1076000064200020CFE0C2E042E0972871D0FE4D18
:1076100098286FD099286ED0A92897D1084600F0F5
:1076200061F993E769E054E02EE00846FFF7A9F915
:107630008CE70846FFF72EFA88E70846FFF792FA2C
:1076400084E729E04DE0C4E00846FFF7D2F87DE783
:107650000846FFF73CF979E70846FEF743F975E776
:1076600023E0084600F001F970E70846FEF7CBFA80
:107670006CE70846FEF74CFA68E70846FFF75AF849
:1076800064E746E087E03CE00846FEF7A6FB5DE7DE
:107690000846FEF73CFC59E70846FEF763FF55E74E
:1076A0007DE00846FEF701FE50E70846FEF755FE6E
:1076B0004CE7084600F04AF948E70846FEF79FFE07
:1076C00044E70846FEF79AFD40E70846FEF7E2FC6D
:1076D0003CE70846FEF777FC38E70846FEF73CFD36
:1076E00034E70846FFF7C2FB30E7084600F06BF9C5
:1076F0002CE733E011E01EE045E00846FFF744FBCD
:1077000024E70846FFF77AFC20E70846FFF72EFD3E
:107710001CE7084600F0FFF918E7084604940594B2
:107720000694079400F092F8002802D0EC71A8208B
:1077300022E0BA2020E008460494059406940794B9
:1077400000F084F8002803D0EE712C72992013E029
:10775000BC2011E0084600F017FAF7E6084604944A
:1077600005940694079400F071F8002803D007F000
:10777000C8FE972000E0A72069460874102104A8DD
:10778000FEF79CF8E2E60846FFF75EFDDEE60846F7
:10779000FFF7C0FDDAE60846FFF706FED6E6084624
:1077A00000F03EFAD2E60846049405940694079445
:1077B00000F04CF800280AD00124944D6407AC6016
:1077C0001920400103F07CFBEC603620D4E7C62092
:1077D000D2E70846FFF754FEB8E67CB50D4602F046
:1077E00003F8894C0922607AC10040188849401882
:1077F00029460AF0B3FC607A69460870294600A859
:107800000722093101300AF0A9FC824A08216846A2
:1078100005F0BEF9607A401CC0B26072032801D93D
:10782000002060727CBD10B57B49097800290CD01E
:107830007A4C2168814201DD081A2060FEF7E7F8E2
:107840002068042801DAFEF7E2F810BD0022114694
:10785000435C491C9A18D2B20F29F9DBC07B9042D5
:1078600001D101207047002070471FB56C490024EA
:107870000C70FFF7EBFF6946002800940194029416
:10788000039417D00A2008700020CA7B0B5C401CB0
:10789000D218CA730F28F8DB1022624802F00DFCE0
:1078A000082805D0002803D05F4A9E21FCF7CCFCB5
:1078B00001205EE58A2008700020CA7B0B5C401C1A
:1078C000D218CA730F28F8DB1022564802F0F5FBD5
:1078D000082805D0002803D0534AAF21FCF7B4FC98
:1078E000002046E51FB50446FFF7B0FF00282BD067
:1078F000637801204D490022002B02D0012B02D0D9
:1079000004E04B4B00E04B4B18700A7000206946B6
:107910000A54401C1028FBDBA9230B70CA730020FB
:10792000CA7B0B5C401CD218CA730F28F8DB1022EC
:107930003C4802F0C2FB082806D0002804D05121A0
:10794000394AC900FCF780FC012012E510B58AB065
:10795000FFF77CFF002834D00020014603AC2154FF
:10796000401C1028FBDB47206946087308A801303B
:1079700008AA411C0092831E0290C21E019107A812
:10798000411CFCF7B5FF0899079808F042FA00205F
:107990006A46D17E225C401C89186A46D1760F283F
:1079A000F6DB102203A91F4802F087FB082805D048
:1079B000002803D01C4A2049FCF746FC124901204C
:1079C00008710AB010BD1FB5FFF740FF00216A46DD
:1079D0000028009101910291039134D0052010708C
:1079E0000020D17B135C401CC9181346D1730F28AB
:1079F000F7DB102219460B4802F05FFB082820D065
:107A000000281ED0084A19E064200020000500501C
:107A1000A4250020DF7401001E2000205820002033
:107A200008200020C8240020A45C0100822000203F
:107A30004D2000204E200020010500009949FCF750
:107A400003FC012095E485231370D1730020D17BC2
:107A5000135C401CC9181346D1730F28F7DB1022A2
:107A60001946914802F029FB082806D0002804D0C6
:107A70008C498E4A1831FCF7E7FB002079E410B5F9
:107A800086B00446FFF7E2FE002841D000200090B7
:107A900001900290039046206946087060780028A3
:107AA00004D001280CD002281FD024E0A078E1786F
:107AB0000002401880B21022694607F0BAFE1AE0B0
:107AC0007B480178684601707A48017868464170C1
:107AD0007948017868468170784801786846C170B5
:107AE000774801786846017105E0E0780874A0786D
:107AF00004AA07F0D0FF102269466B4802F0DDFAB5
:107B0000082805D0002803D0684A6E49FCF79CFB82
:107B1000012006B010BD30B5044687B000200290A9
:107B20000390049005902046FFF790FEA6250028BC
:107B300022D06078694608F0CFF9002813D096204B
:107B40006946087260784872487988720879C87204
:107B5000C878087388784873487888730878C87339
:107B60008879087401E068460572102102A8FDF7C3
:107B7000A5FE012007B030BD68460572102102A89D
:107B8000FDF79CFE0020F5E730B58FB000240546D8
:107B9000089409940A940B94FFF758FE002835D0F6
:107BA0003D2008AA107010211046FDF787FE0E2216
:107BB000691C03A80AF0D2FA6A46947603A808F072
:107BC000FEF808AA1120107403A80AF0FFFA82B286
:107BD00003A90CA87CDF002804D03A49334AEB31D2
:107BE000FCF732FB0EA801300EAA411C0092831E46
:107BF0000290C21E01910DA8411CFCF779FE0E995E
:107C00000D9800F09EFCFCF700FB06E0BD2008A9E3
:107C10000870102108A8FDF751FE01200FB030BDFB
:107C20001FB500240094019402940394FFF70EFE04
:107C3000694600281BD0592223480A7002784A70EE
:107C4000CC730020CA7B0B5C401CD218CA730F286F
:107C5000F8DB1022144802F030FA082805D000287A
:107C600003D0124A1949FCF7EFFA012033E4C92284
:107C70000A70CC730020CA7B0B5C401CD218CA73FC
:107C80000F28F8DB1022084802F017FA082806D05F
:107C9000002804D00D49054A1031FCF7D5FA002020
:107CA00019E400006A070000C8240020A45C010059
:107CB0006123002062230020682300206423002029
:107CC00063230020B40900001A200020220D0000C8
:107CD000734A014613780020724A002B0BD005200E
:107CE000907071480069000CC007C00F01D00520DA
:107CF000704704207047FF236433994218D3FF2054
:107D00007330814201D2012012E0FF207B3081429A
:107D100001D202200CE0FF208530814201D20320F5
:107D200006E0FF209130814201D2042000E00520CE
:107D300090707047F8B55D4F3888FFF7C9FF584914
:107D4000012409785A4E0843002500280DD03888B0
:107D5000FFF7BEFF002825D03078002822D03570EC
:107D6000544E307800281ED020E053480121057081
:107D70005248347004704C484907C160504800783C
:107D8000002803D04F483B21008876DF494C2078FB
:107D9000002801D074DF2570FCF7B8FA06F0CEFF9A
:107DA00001F091F8F8BDFCF7BFFF34703D48457015
:107DB00006F0A8FFFCF79AFAF8BDF8B5424801258D
:107DC00000240078AD0227460C2802D135490A204C
:107DD0000870334801780120002902D03649087024
:107DE00003E03548007800282DD02F490420C860D2
:107DF00002210022084608F0DBFA002608F0FAFA11
:107E000080B2854200D90546844200D204463F181C
:107E1000761C0A2EF2DB781B001B4003010C4B2260
:107E2000D20051432148890A1F4B018004229A60E5
:107E3000FF225F3291420AD81F4900220A70FF21B7
:107E40005531018003E0FF20184955300880FFF7C5
:107E500071FFF8BD134904200870704710B51B4925
:107E6000062008700F4901204870FCF74FFA06F011
:107E700065FF13480078002801D0FFF7F0FA10BD25
:107E800010B512490620087006490020487006F017
:107E900039FF0B480078002801D0FFF7E0FA10BD49
:107EA000142000207B2000200005005060200020CE
:107EB0005420002011200020552000200F200020F9
:107EC00010200020322000200D20002088200020DB
:107ED000F1B5002084B0019004460090FE48406A4D
:107EE000029020460A2148430026029935460F1A7F
:107EF000781BC8210AF008F9F8486D1C405C80190D
:107F000086B20A2DF4DBF6480078864208D3009842
:107F1000641C801900900198401C01900A2CE0DB41
:107F2000049901980870009805B0F0BDF0B585B0CF
:107F300000256846E84C0571A07A401CC0B2A072CA
:107F40000628F1D1E748A57200680390066820462C
:107F5000A76AC1790291406A0090BE4218D1C82137
:107F60000AF0D2F8DD484554029801286DD1A07975
:107F7000401CC0B2A0710A2835D3C821D7480AF0E6
:107F800006F925716562A57165712582E5715CE070
:107F9000BE4224D9A571C8210AF0B6F8CF48F21B19
:107FA000425403980068A0620298002818D10098F3
:107FB00063284AD301A8FFF78BFF694609790A298C
:107FC0000ED32582E16A0818E0620120E071257174
:107FD0006571C821C1480AF0DAF86562A4E7A662B3
:107FE000E079012831D1606A0A2100900AF08CF80A
:107FF00009292AD1002637460098C821C01B0AF05B
:1080000083F8B6487F1C405C801906B20A2FF3DB68
:10801000B3480078864207DBE06A218A801940185D
:10802000E0622582257110E02079401CC0B22071E9
:10803000022809D3C821A9480AF0A9F82571656268
:10804000A571E571258200E02682606A401C6062AD
:108050006AE77CB5A448A54C0178A24D20680029A8
:108060000AD0A34E012910D00AF040FB31680AF073
:10807000D9FB20D864207CBD29680A688242F9D2E5
:1080800064214A430146104612E0694601A806F001
:108090001CFD28680068002805D0009948437D2110
:1080A000C9000AF031F821688842E3D264225043C3
:1080B0000AF02AF80CE020680AF018FB04468D4903
:1080C00030680AF0F9F821460AF033F90AF03DFB6E
:1080D000C0B27CBD70B50646FFF7BBFF0124864DDC
:1080E000002E1AD0642817D32878002814D183488A
:1080F000844904708248047006200870FCF7B2F8C6
:1081000081490020087081490E20087009F07FFD28
:1081100071492C700720087070BD6428FCD32C7046
:1081200070BDF0B57A480024007887B0002864D08C
:108130006C48694E0568726B296891425DD00020D9
:108140006F4671633C54401C1028FBDB684869494A
:1081500000680AF0B1F80AF0F8FA092269460A70D4
:10816000296849024A0E69464A7029880A0A6946FE
:108170008A702A78CA7029687163020C6946CA71CC
:10818000020A0A72487204A905A806F09EFC554826
:10819000049D06687D213068C900684309F0B4FF7A
:1081A000000C6946887230687D216843C90009F077
:1081B000ABFF000A6946C87230687D216843C90078
:1081C00009F0A2FF6946087352483C21006809F093
:1081D0009BFF020A69464A738873CC7300206A4683
:1081E000D17B3A5C401C89186A46D1730F28F6DBB4
:1081F00010226946484801F060FF4848007800288E
:1082000006D0384800680460394804603248846207
:1082100007B0F0BD10B53048418A491C41823F4843
:108220000078002803D106F062FCFFF77AFF10BD4A
:1082300010B5002400E0641C394809F0C7FFA042D3
:10824000F9D810BDF8B5244C207A002811D0401E72
:108250002072C00706D01D2000F07DFE207A002885
:1082600004D006E01D2000F07BFEF7E71D2000F0A3
:1082700077FE2C482A4A01782B48244F00252B4EA4
:1082800000297ED001781F4801701078002870D036
:10829000A0782749401CC0B2A0700978884201D854
:1082A000C00703D01D2000F05BFE02E01D2000F09F
:1082B00052FE3078002808D0134805701D4805701C
:1082C000FBF7D0FF0920387035700E490320E070AD
:1082D0000870A078184931E0802000203028002064
:1082E000592300203420002074200020702000201A
:1082F000482300200000C842662000204F200020B4
:108300000F2000207C2300200E2000200D200020C4
:108310000820002000210020C82400201220002076
:108320008425002005200020042000205320002068
:10833000782000200B200020772000200978884238
:1083400003D8F8480088002858D11D2000F008FE06
:10835000002008F0F7F8F448A5700570012030708F
:10836000FBF7BDFFEF481E210180092045E008E032
:10837000FFE76078401CC0B2607003283ED9EBA1D3
:1083800044E0ED490978002944D0EC4900780870B0
:108390001078002833D0A0780322401CC0B2A0700F
:1083A000E2700A70022801D8C00703D01D2000F037
:1083B000D7FD02E01D2000F0CEFD3078002804D06B
:1083C000DF480570FBF74EFF35700A203870DB4937
:1083D00004200870DB49A078097888420ED91D2056
:1083E00000F0BEFD002008F0ADF8D348A570057080
:1083F00001203070FBF773FF0A203870F8BD6078F9
:10840000401CC0B260700328F8D9CFA1D04809F051
:10841000F1FEF8BDCF4801780820002932D038702D
:108420003078002802D008F0C0F83570A078401CE1
:10843000C0B2A070062810D8C00706D01D2000F0DA
:108440008FFD002008F07EF80AE008F0AEF809F091
:10845000AFFB1D2000F07FFD02E01D2000F080FD3D
:108460000320B649E0700870A0780928D1D91D20F2
:1084700000F076FD002008F065F8FBF730FFA570EE
:10848000B44831E0B4490978002931D038703078E7
:10849000002802D008F089F83570A078401CC0B2DE
:1084A000A070062810D8C00706D01D2000F058FD87
:1084B000002008F047F80AE008F077F809F09AFB86
:1084C0001D2000F048FD02E01D2000F049FDA078CD
:1084D00009289ED91D2000F043FD002008F032F845
:1084E000FBF7FDFE9C48A570057001203070F8BDBB
:1084F0009A4E31780029FAD03870A0780321401CB8
:10850000C0B2A0708D4AE170117008280ED2C00769
:1085100006D01D2000F024FD002008F013F8F8BD5F
:108520001D2000F018FD09F072FBF8BD1D2000F0C1
:1085300017FDA0780C28F8D9FBF7D1FEA57035708F
:10854000F8BDF3B5864897B0017810A8077F407F43
:10855000149010A8807F139010A8408C129018A837
:108560004078119018A80078109010A8C67F0029B4
:108570007ED00EA807F055FC08A8017E684601775A
:1085800008A8417E6846417708A8817E68468177C1
:10859000C18F418408A8417F4170017F0170C17E75
:1085A0006846C1776F48704A017812780024914379
:1085B000002900D004706D4D15A92868006800904E
:1085C0006B480068019016A806F07FFA28680068DA
:1085D00000287DD0159948437D21C90009F094FDFC
:1085E0000AF084F8029063480068002871D0039074
:1085F0006148C06A0990FFF72CFD69460874684617
:1086000007F004F8564D0AAA2B7808990798FCF74A
:108610000DFA0AAA0899079807F082F92878002825
:1086200061D0564856490078087007F04AFD524D0F
:10863000C8215448AC6209F0AAFD2C716C62AC717F
:108640004A48EC6100680460494804604948046095
:10865000434804702C624C48AC6104706846EC627C
:10866000077714994177139981771299418400E033
:108670003BE008A811994170109901706846C677CF
:108680003A480EA900680068009001940FA806F00F
:108690001CFA36480E9900680068484339D00294A5
:1086A00034480068002871D00390FFF7D2FC694677
:1086B0000874684606F0AAFF6946488C08A9087243
:1086C000087848726946C87F08A98872CC7201E0B0
:1086D0001BE01CE00C730C940D940B940AAA0899EF
:1086E000079807F01DF919B0F0BD6846077714998F
:1086F0004177139981771299418408A811994170A3
:10870000109901706846C6774CE702946BE70394B2
:108710006EE77D21C90009F0F7FC09F0E7FF029040
:10872000BEE733E0302000200520002070686F6E27
:10873000652063616C6C0000072000207C23002012
:108740000B200020792000206D6573736167650040
:10875000842500204D2000204E2000204F200020A6
:1087600069200020752000206A200020342000208D
:10877000482300200021002080200020F720002036
:10878000F8200020302800206620002003948CE789
:10879000F7B584B0002000900190029003906846E5
:1087A000877C1646384606F0C7FD85006846447C3F
:1087B000204606F0C1FD0F2109F0A6FC2818C5B21D
:1087C0006846C18A0170017D4170C17C8170384664
:1087D00006F0B2FD8700204606F0AEFD0F2109F03D
:1087E00093FC39186846C170FF2101716C46022E56
:1087F0000ED06D1CEDB20020411C2018417148B212
:108800000828F9DB2146284607F05EF8012726E014
:108810006D1CEDB209220821601D09F0B1FC69460A
:10882000284607F051F86D1E0822EDB21146601D72
:1088300009F0A6FC6946284607F046F8E8E46D1EF4
:1088400000207F1CEDB2F9B22218401C40B25171D9
:108850000828F9DB6946284607F036F87FB2B742A8
:10886000EDDBD5E4F7B584B00020009001900290D4
:1088700003906846877C1546384606F05DFD840007
:108880006846467C304606F057FD0F2109F03CFC57
:108890002018C4B26846C18A0170017D4170C17C54
:1088A0008170384606F048FD8700304606F044FDEA
:1088B0000F2109F029FC39186846C17000210171A7
:1088C0000646012D0CD015DD641CE7B20821701D91
:1088D00009F05DFC6946384606F0F6FF012416E013
:1088E000641CE4B20821401D09F051FC6946204691
:1088F00006F0EAFF8CE47F1EFFB20821701D09F02C
:1089000046FC6946384606F0DFFF641C64B2AC42A0
:10891000F1DB7DE410B586B0044604A8013004AA5A
:10892000411C0092831E0290C21E019103A8411CAB
:10893000FBF7DEFFF949002008700F21204609F0FF
:10894000E3FB002804D042B204990398FFF78AFFA2
:1089500006B010BD10B586B0044604A8013004AAC4
:10896000411C0092831E0290C21E019103A8411C6B
:10897000FBF7BEFFE949012008700F21204609F0EE
:10898000C3FB42B204990398FFF702FFE0E7704788
:10899000E448E349416001218160E3480160704798
:1089A000E349E24808607047F3B50E46E14983B0F9
:1089B0000878002801D0401E0870DF490878002898
:1089C00001D0401E0870DD480127017800290BD036
:1089D000491E0906090E017006D1D94C20780028DD
:1089E00002D1FCF7A1F92770D648002400780128AD
:1089F0001CD1D5480078002818D0D4480178491CEB
:108A0000C9B201703C2904D90470D148047001F046
:108A10005FF8D0490878002808D0401E0006000EF4
:108A2000087003D1CC481321008876DFC049BF48C5
:108A30000860CA490878002806D0401E0006000ECB
:108A4000087001D1FFF7B9F9C5480178002906D0AF
:108A5000491E0906090E017001D100F0D3FEC14D77
:108A6000E88A401C80B2E882782802D9EC82FFF7BD
:108A7000F1F932466846039909F070FB0120FFF7CF
:108A800029FBB9490878002801D0401E0870B74872
:108A9000B74900780978084301D106F05FF9B54875
:108AA0000078002808D0B34EC0070BD01D2000F07E
:108AB00057FA3078401E3070AF4EAC8230780028C4
:108AC00010D103E01D2000F046FAF2E7AB48AC49B4
:108AD000007809780843AB4909780843AA4909781E
:108AE00008431DD0E87A401CC0B2E8723C2803D885
:108AF000A6480078002814D0EC72A34834700470A3
:108B00009E4804709E4804709E4804701D2000F02A
:108B100027FA9F48347007709E491E20088000E0A5
:108B2000EC729D4A9D49107800280CD0287B401C8F
:108B3000C3B22B73687B401C6873AC730C70042B3E
:108B40000FD914700DE02C730878002809D0A87B89
:108B5000401CC0B2A873012803D9AC7389480C70BB
:108B600007708F49087800280BD0401E0006000EC1
:108B7000087006D18B4804708B4804708B480470D1
:108B800037707B48007800287ED189490A78002A0E
:108B900004D0884803689A1802600C707348007803
:108BA000002803D1844800780C2808D17548347017
:108BB00004707248047072480470734804707149FC
:108BC0003078097808436D49097808436C49097879
:108BD00008436D4909780843297A084305D00021E4
:108BE000764A084603F0D4FF06E062480078002881
:108BF00002D11D2000F0B4F971480078002803D09C
:108C000001990098FFF79DFC684606785F48324658
:108C100001780A4322D15A4A404B12781B781A43F2
:108C20000A430BD16748019900680268009807F071
:108C30007FF853490028087000D0AC704F48534962
:108C400000780978084309D102220199009807F0B9
:108C50000BF84A490028087000D0AC7056495A48B1
:108C60000A78062A0CD10278584B521CD2B20270F4
:108C700006201870052A04D355480C700770274841
:108C80000470592E09D100E034E001990098FFF7F3
:108C900058FC0199009804F09CFD684680782328D0
:108CA00028D168464078592824D1592E22D14949E3
:108CB0000888002801D0401E088007F0D8F94648EF
:108CC00046490078087007F0FCF93E48C821006862
:108CD00004604348AC6209F05AFAEC622C716C6291
:108CE0003448AC7104603F480460EC61AC613E48BC
:108CF0002C62047005B0F0BD10B51D2000F030F9F5
:108D0000184C607A002804D0206C02F0EEFB0020A2
:108D1000607229496420087010BD00006A2000209C
:108D2000FFFF3B0000050140000001403546526E48
:108D3000000601401F200020562000205720002060
:108D4000112000201A2000201020002020200020C8
:108D50001D20002021200020322000207B20002028
:108D600009210020802000207620002054200020AF
:108D7000122000204B200020052000204D20002044
:108D80004E200020072000204F200020142000202B
:108D900053200020302000200A200020092000203D
:108DA000062000202520002026200020272000204B
:108DB00077220020002100200D20002045820100A4
:108DC0006920002034200020512000207C23002036
:108DD0000F200020FE200020F7200020F820002097
:108DE00030280020482300206620002070B55F480E
:108DF00086B043685E4C5F4A216B8B42436801D961
:108E0000591A03E0591A01231B06C918914242D38B
:108E1000406820635848594E0168491C0160E07859
:108E200000280BD03178002908D1401E0006000E22
:108E3000E07003D1FFF760FFFBF751FA504D28783F
:108E400000280BD03178002908D1401E0006000E02
:108E5000287003D14B490870FBF741FA04A8013090
:108E600004AA411C0092831E0290C21E019103A815
:108E7000411CFBF73DFD287800280ED0424A08210E
:108E800003A803F085FEA08A401C80B2A0821428AB
:108E900001D9FBF7BAF906B070BD082103A8FFF7A6
:108EA00083FDF0E710B53248C17B491CC9B2C173DC
:108EB000062905D90021C173344A084603F068FE2B
:108EC0002AE7704770477047704710B53048284C04
:108ED0000078E070607A002806D100228321206C9F
:108EE00002F0C8FA0120607216E708B50020294B8D
:108EF00005220421009002F024FA002803D026A2C3
:108F00002949FBF7A1F91A48284A0121383002F013
:108F10006AFA002804D024491FA2491DFBF794F9DE
:108F20001348234A01213C3002F05DFA002804D0A6
:108F30001D4919A20A31FBF787F90D481D4A012185
:108F4000403002F050FA002804D0174912A20F3125
:108F5000FBF77AF908BD012181401748816070470D
:108F6000012181401448C160704700000015014094
:108F70008020002010270000502300201420002013
:108F80007C2300200C200020A9890100C993010046
:108F900004200020C82500202E2E5C74696D6542D7
:108FA0006C652E63000000004D0600001582010074
:108FB000ED8D0100A58E0100000500500A1AD0B207
:108FC000704710B5BD490A78BD49002A2ED0BD4B67
:108FD0008A781C78BC4B0A2A03D29C54521C8A7093
:108FE00010BD00215A1852785A54491C0929F9DB3E
:108FF0005C720028F4D059781878FFF7DFFF052855
:10900000EED3D9799878FFF7D9FF0328E8D8597AB1
:10901000187AFFF7D3FF0528E2D3BFF34F8FAC498F
:10902000AA48C860BFF34F8F00BFFDE700208870DB
:1090300010BD10B5A7480168491C0160A64800781A
:10904000002801D1FFF741FF10BD10B5A14801680C
:10905000491C0160FFF739FF10BD704770B5FEF77E
:10906000F9FE9648007800281FD19C4D9C4A28782C
:1090700011789C4B084319789B4C0843217808438E
:10908000954909788843012100280FD000202870D5
:10909000107018702070954A4807D060944801708D
:1090A00094491E200880FBF71AF970BD8448C172EC
:1090B0000170FBF7D7F870BDF8B5814C0025A07A98
:1090C0000126022700280ED0A5720F2000F0F0F82C
:1090D000012801D1E5712771102000F0E9F800287E
:1090E00001D126726771A089002801D0401EA0819D
:1090F000A079002802D0012855D140E0112000F0CD
:10910000D7F801280AD0E0897349401C80B2E08179
:109110000978002927D0E581A6712EE0E0780028A3
:1091200004D0401E0006000EE0703CD1A671E7702E
:109130000120FFF746FF68480078002833D1E08916
:10914000642830D8A189002902D0A58166702AE060
:10915000192828D21420A0815E480168491C0160AA
:10916000FFF77CFF1FE0642804D9607A002804D14F
:10917000667202E0642800D26572E77013E0112085
:1091800000F096F8002801D0E581F6E7E0780028A5
:1091900004D0401E0006000EE07004D1E770A571F7
:1091A0000020FFF70EFFE079002802D001282BD124
:1091B00024E00F2000F07CF8012824D12079002839
:1091C00004D0401E0006000E20711DD13B48E67100
:1091D000067049484B490670484806704848067072
:1091E00006200870FBF73EF84749142008708120DC
:1091F00007F07BF9302007F078F905E00F2000F048
:1092000057F800280BD02771207A002822D0012897
:1092100026D1102000F04CF800282ED01FE0207935
:10922000002804D0401E0006000E2071ECD1344806
:10923000E5710570FEF7C1FD33480178142900D0AF
:1092400005701E48324905703048057026720320AB
:109250000870D9E7102000F02BF8012801D06771C1
:10926000F8BD6079002804D0401E0006000E607131
:10927000F6D1264826720670F8BD6079002804D021
:10928000401E0006000E6071F6D120482572057060
:10929000F8BD0B4810B500231E4A0221103003F020
:1092A0008DF9002803D01CA21F49FAF7CDFF10BD8D
:1092B0000E490969C140C807C00F7047142000203B
:1092C000C820002050230020F82800200400FA05C0
:1092D00000ED00E070230020122000200520002077
:1092E0004D2000204E2000200720002000050050C7
:1092F0005320002030200020552000200F20002087
:109300004C2300207C2300200D2000204C20002036
:109310007B200020660600002E2E5C627574746F40
:109320006E426C652E6300002A02000070B5FA4C94
:109330002078002801D101202070F848006900251C
:109340000004C00F002829D0FAF78CFF6079F44A96
:10935000401CC0B2607102211170F24A03281170E2
:1093600023D96571A079401CC0B2A071012812D028
:109370000122002107F0E0FCA079401CC0B2A071DE
:10938000642812D96571A571002007F0DBF805F09B
:10939000B9FC012070BD01221146EBE76571A57192
:1093A000002007F0CFF8FAF79AFF002070BD10B543
:1093B000D948C179491CC9B2C1710A2903D1002118
:1093C000C171FEF7FAFC10BDF0B591B0FFF774FE65
:1093D000D548D64E00780025002801D010200DE099
:1093E000D3480078002804D03078142807D035708E
:1093F00005E0D0480078002801D011203070CE4917
:1094000030780978C44C884206D0CB4908700020D7
:1094100007F098F8012020723078C84F0E287DD0D0
:1094200009DC030009F031FB0B194C6182FE60601E
:109430006060FDFC6000152871D007DC0F38030068
:1094400009F023FB06F4F3F25252F1521A2867D0C6
:109450001B2866D01D2847D13CE0B548007800287D
:1094600001D0FFF7A4FF06A8013006AA411C009214
:10947000831E0290C21E019105A8411CFBF738FA19
:10948000AF480088FEF724FCA94AAE4B217A127837
:109490001B78009003950193029204916846C37D66
:1094A000027E417D807D08F009F8A149387809786D
:1094B000884319D03D70207A0028CCD10120D5E016
:1094C000A14800220068237A0068012107E03D706E
:1094D0000220CBE09D48237A00220121006808F099
:1094E00023F938780028F2D179E19A489849006840
:1094F000009008F0E1FE09F028F9642108F004FE6C
:1095000021610191009809F020F90199237ACAB2EA
:10951000022108F009F93878002803E0B2E094E06D
:109520004DE05EE0E0D03D7003209FE00FA910A861
:1095300005F0CBFA88480F99007800288248006827
:10954000006819D0484309F0D1F8844908F0F1FEC9
:10955000009009F0E1F8642108F0ECFDC8B2019038
:109560007B49009808F0E5FE09F0EFF8237A042122
:10957000019A08F0D9F861E0484309F0B7F8774953
:1095800008F0D7FE09F0F5F8754A764B08F0CEFFE3
:1095900009F02CF9009009F0BFF8642108F0CAFD29
:1095A000C8B201906A49009808F0C3FE09F0CDF8EE
:1095B000237A0321019ADCE73D70152056E060789C
:1095C00000280BD0237A17220621608908F0ACF816
:1095D0003878002835D03D701B2047E01B203070C4
:1095E000F6E7A07800282DD0237A172207212079CA
:1095F00008F09AF85C48017800291FD0484A0621F3
:10960000117005702079002801D0401E207106F0ED
:1096100058FD5A2168460177A1784177E17806E044
:1096200039E035E024E0CDE0BAE03DE02CE08177A0
:109630002179C177102107A8FCF740F93878002874
:10964000BAD1CCE015203070D4E73C21E06808F0B6
:109650005BFD3C2108F058FD0A46237A052108F0FD
:1096600063F83878002802D03D7004203070B6E0EE
:10967000FEF7EFFCC0B20022217A08F0F7F90FE004
:109680003D70ABE025720BE0207A08F0DFFA07E0CE
:10969000227A012101E0227A0221344808F089F976
:1096A00038780028ECD19AE0FFF740FE002831D04E
:1096B0001D48254F05702E48C82105703570386843
:1096C00005602C4805602C4808F061FD2B483049A6
:1096D00005702B4805602B4805702B4805701D4808
:1096E00005601A48E56005602848056038682A4F1B
:1096F00000680860274805603878002803D1FBF728
:1097000013FB0120387025490120087014203070A7
:10971000FAF77BFD63E00000F42000200005005014
:109720007C23002083200020122000200D20002018
:1097300014200020542000200E200020C8200020EB
:10974000602000201020002034200020AC200020C9
:109750000000C842482300206420002000007A4412
:10976000AC1C5A643BDFE33FF0200020842500203E
:109770007C200020A8200020302800208420002009
:10978000A420002086200020C62000209C2000204D
:1097900098200020A020002011200020522000202E
:1097A000207A002802D007F0D4F86572607A401C55
:1097B000C0B260720A2812D30A4864210170FAF715
:1097C0008EFD0CE0207A002802D007F0B0F8657218
:1097D000607A401CC0B26072642800D33570257274
:1097E00011B0F0BD0E20002010B50C481E214170B4
:1097F0000178002905D10121017032210F2001F0EB
:1098000012FC10BD10B505480178002905D00021D3
:1098100001709621282001F006FC10BD08210020CF
:1098200010B5FE4CA168E068884210D02C21FC4A9B
:10983000484381184B68012B0AD0105A1C3197DF1E
:10984000002804D1207B401C4007400FE06010BD81
:10985000105A0989002295DFF2E738B50546F14A2A
:109860006846012102800224847028896A4690DFBC
:10987000010003D0284600F0F8FA38BDE74804613B
:1098800038BD38B50446E848018CFF2903D0818DE6
:10989000FF2908D014E0C08B6946401C088048802E
:1098A000208993DF06E0408D6946401C088048808F
:1098B000208993DF010003D0204600F0D6FA38BD9E
:1098C000D6490420086138BDFEB50E46C988074652
:1098D0000846FF380B3807D0093005D0002913D0CF
:1098E000384600F0C2FAFEBDCF48C18B002909D02E
:1098F000418A002906D0408D002803D03846FFF762
:10990000C0FFFEBD0521EBE7C748002401460A3130
:1099100002910C31223025460191009016E00A2078
:1099200068438419E189C1480E34091809D0C04838
:10993000081819D0BD49C91CC84206D12146029851
:1099400001E02146019800F0BAFA6D1CB089A842E6
:10995000E5D8002C0BD020896946401C0880B2480D
:1099600000894880384605E021460098EBE7AE497B
:109970003846891D00F08AFAFEBDF7B5A84D0024CF
:109980001646A64F303D5EE07869030009F07DF889
:1099900009060B10151A1E2328375A000198005D7E
:1099A000287201204DE00198005D6872022048E0B5
:1099B0000198005DA872032043E00198005DE87201
:1099C00004203EE00198005D287339E00198005DB5
:1099D0006873062035E00198005DE881072030E0DB
:1099E0000199E889095D09020843E8810820786146
:1099F0008B482038F8610020F880B88022E0F88891
:109A00001F2805D20199FA69095D1154401CF8809C
:109A1000B888401C80B2B880E989814212D1F888A8
:109A2000202801D11F20F88080B2E881FA69002146
:109A3000115403202860009801687948303888471D
:109A400005207861641CB4429EDBFEBDFFB516465E
:109A5000724A81B010691D46052802D0082005B061
:109A6000F0BD90682C234343401C4007400F90609A
:109A70006B4C6D481C19408AE083204608306062B8
:109A800000272784012020772046277204220930EE
:109A900008F064FB05200FE029782218117269880C
:109AA000401C002905D022181172401C21180F7289
:109AB000401C761EF6B22D1D002EEDD1608401985B
:109AC0000089208002206060FFF7AAFE0020C6E720
:109AD00008B552480078002819D056480078002868
