:020000040001F9
:10400000603B00203541010047410100494101006A
:1040100000000000000000000000000000000000A0
:104020000000000000000000000000004B41010003
:1040300000000000000000004D4101004F41010060
:104040005141010051410100514101005141010024
:10405000514101000000000011C801005141010060
:104060005141010051410100514101005141010004
:1040700051410100514101005141010051410100F4
:10408000514101008DB30100514101005141010036
:10409000A3B301005DCA0100BFCB01005141010083
:1040A00051410100514101000000000000000000EA
:1040B0000000000000000000000000000000000000
:1040C000034885460CF09AFC00480047175501004C
:1040D000603B0020401E00BF00BF00BF00BF00BF0C
:1040E00000BF00BF00BF00BF00BF00BF00BFF1D1D5
:1040F00070470000401E00BF00BF00BF00BF00BFF0
:1041000000BF00BF00BF00BF00BF00BF00BFF1D1B4
:1041100070470000401E00BF00BF00BF00BF00BFCF
:1041200000BF00BF00BF00BF00BF00BF00BFF1D194
:10413000704700000748026803210A4302600648EE
:10414000804706480047FEE7FEE7FEE7FEE7FEE79A
:10415000FEE700002405004069410100C140010064
:10416000234922480860704710B500F01DF8002868
:1041700005D021491F484860C8132049886120485C
:10418000018CC9B201290ED1818C09070BD1018D97
:104190000906090F042906D1808D0006000F02D1FF
:1041A00018490120886010BD1548018CC9B2012949
:1041B00017D1818C090714D1018D09060A0F03D18B
:1041C000828D1206120F0ED0090F012903D1828DA4
:1041D0001206120F07D0032903D1808D0006000FAD
:1041E00001D0002070470120704700000024F40037
:1041F00000200020DFFF07C000050040006C0040E9
:10420000C00F00F000060040704708B509F0CFFC71
:104210000A2006F0A9FE684612DF002803D0F9A2A2
:10422000FB4900F011F868460078002803D0F02020
:104230003ADF002039DFBFF34F8FF749F548C860F8
:10424000BFF34F8F00BFFDE710B5002809D0082845
:1042500007D0F249884204D0F149884201D0FFF7E3
:10426000D4FF10BD70B5EF4CEF4920780870E079AD
:1042700000280DD10125E5710AF0ABF96420A07288
:1042800004F07DFEE949002008706072E572257235
:1042900070BDE74A10B50120E54918321060121DC3
:1042A0001060E34A10321060121D1060E04A0C32B8
:1042B00010600860032001F079FA002001F071FA23
:1042C000AE200AF026F9AE200AF023F910BD10B591
:1042D000FFF7DFFFD34800214172C17104F064FD94
:1042E00010BD10B50021D34A084608F0A7FC10BD48
:1042F00010B5CC480022418DCF48006807F012F974
:10430000002804D0FF21CDA27131FFF79DFF10BD21
:1043100010B5C948006807F065F9002804D0FF21EE
:10432000C6A27831FFF790FF10BD0A460146C64885
:104330008AE710B5642006F017FEC44805F0ABFD0F
:10434000002804D0FF21AFA29731FFF77DFFBF48BF
:1043500005F0ABFD002804D0FF21AAA29A31FFF797
:1043600073FF10BD70B583780021B94CB94DAD4ACB
:10437000012B16D0042B01D0002B11D15078137CC7
:1043800018430DD1907D01280AD12170AF482970C2
:10439000202180300BF00FFFA24801212030017056
:1043A00070BD0078002803D00228F9D1918570BD36
:1043B000D078137C1843FAD1907D0128F7D11E20C4
:1043C000908521702970907C0028F0D00220907098
:1043D00070BDF8B50746934E4079394634460831EA
:1043E00000252034012810D0002825D19748FA88CC
:1043F00080300BF0C7FE9548F9888030455421780D
:10440000002919D02570002721E0FA881C2A06D936
:104410001C228F480BF0B6FE8D48057703E08C48D0
:10442000521C0BF0AFFEB078002805D06570A57067
:10443000E570B57001207070F8BD84488030C15DB2
:104440000A46413A192A01D82031C1557F1C7F48BC
:1044500080300BF0CFFEB842EFD87C487EA1803090
:104460000BF0B4FE002807D0F07C0028E4D0012037
:1044700070716070A5700DE074487BA180300BF006
:10448000A5FE002808D0307D0028D5D0012070710D
:104490006570A070E570F8BD6C4876A180300BF0B7
:1044A00095FE0028F7D0707D0028F4D001207071AF
:1044B0006570A570E070F8BD10B50178594C002901
:1044C00009D0012920D0083002291AD0032901D1AE
:1044D000FFF77FFF10BD534901222031487A104376
:1044E0004872C143890706D08007F3D44D49E08D57
:1044F00034317EDF10BD0021614A084608F09EFB82
:1045000010BDFFF72FFF10BD607E022803D90020E9
:10451000A07509F0B0FDA07D0128F4D1E08D5949C6
:104520008842F0D0617E491C6176132176DF002835
:10453000E9D034A25449FFF787FE10BD10B50446F8
:104540000146424805F0DEFB207802280DD13549AE
:1045500002222031487A10434872C043800704D1B8
:104560000021474A084608F069FB10BD10B506F067
:10457000FBFC10BD70B52E4D01244C352C60132072
:1045800001F014F92A4820300460082001F00EF9E7
:10459000274824300460092001F008F92448283015
:1045A00004600A2001F002F921482C3004600B203D
:1045B00001F0FCF8C82006F0D7FC2C60132001F0B5
:1045C000F0F80A2006F0D0FC70BD10B518480124A0
:1045D000743004601D2001F0E9F8154808300460CB
:1045E000022001F0DEF81249002040310860104836
:1045F0004C300460132001F0D4F8642006F0B4FCC1
:1046000010BD00002E2E5C6D61696E2E63000000EF
:10461000AC0900000400FA0500ED00E003300000E2
:10462000013400000420002040220020C820002087
:1046300000070050CF420100B82000202E2E5C6DF4
:1046400061696E2E63000000EFBEADDE082500201C
:10465000A8250020812000206170706C652E6D6F90
:1046600062696C65736D730074656E63656E742E3C
:104670006D71710074656E63656E742E78696E007D
:1046800033430100FFFF00006D020000014600B54A
:104690000020092901D8084600BD10390B000CF094
:1046A0003FFA4A27292B2D2F313335373926262635
:1046B0002626263B3D3F41434547494B4D2626266E
:1046C0002626264F51535557595B5D5F6126262696
:1046D000262626636567696B6D6F717375262626BE
:1046E00026262677797B7D7F818385878926D3E778
:1046F0000A2000BD0B2000BD0C2000BD0D2000BD18
:104700000E2000BD0F2000BD102000BD112000BDF7
:10471000122000BD132000BD142000BD152000BDD7
:10472000162000BD172000BD182000BD192000BDB7
:104730001A2000BD1B2000BD1C2000BD1D2000BD97
:104740001E2000BD1F2000BD202000BD212000BD77
:10475000222000BD232000BD242000BD252000BD57
:10476000262000BD272000BD282000BD292000BD37
:104770002A2000BD2B2000BD2C2000BD2D2000BD17
:104780002E2000BD2F2000BD302000BD312000BDF7
:10479000322000BD332000BD342000BD352000BDD7
:1047A000362000BD372000BD382000BD392000BDB7
:1047B0003A2000BD3B2000BD014600B5002009297C
:1047C00001D8084600BD0A390B000CF0A9F9321BCC
:1047D0001D1F21232527292B2D2F31333537393B19
:1047E0003D3F41434547494B4D4F51535557595B09
:1047F0005D5F61636567696B6D6F71737577797BF9
:104800007D1ADFE7102000BD112000BD122000BD81
:10481000132000BD142000BD152000BD162000BDD2
:10482000172000BD182000BD192000BD202000BDAC
:10483000212000BD222000BD232000BD242000BD7A
:10484000252000BD262000BD272000BD282000BD5A
:10485000292000BD302000BD312000BD322000BD28
:10486000332000BD342000BD352000BD362000BD02
:10487000372000BD382000BD392000BD402000BDDC
:10488000412000BD422000BD432000BD442000BDAA
:10489000452000BD462000BD472000BD482000BD8A
:1048A000492000BD502000BD512000BD522000BD58
:1048B000532000BD542000BD552000BD562000BD32
:1048C000572000BD582000BD592000BD010710B57C
:1048D000090F092901D9002092E60028FCD07D2388
:1048E000020BDB005A4303051B0F64246343D218F9
:1048F0000006000F0A2358431018401880B27FE6C4
:10490000FFB583B00F460CA970C9FFF7BFFE69461B
:1049100008703846FFF7BAFE694648701046FFF740
:10492000B5FE694688700698FFF7B0FE6946C87004
:104930002046FFF7ABFE694608710121E8B2490342
:104940004018FFF7C3FF6946C8803046FFF79EFE58
:1049500069464871684608F0A0FC08F00FFC012089
:1049600007B0F0BDFEB50746FF480E4601681D467C
:104970001446684608F008FC68460078FFF71CFFFC
:10498000387068464078FFF717FF307068468078C7
:10499000FFF712FF20706846C488002C31D07D21BB
:1049A000C90020460BF0C4FB0603084664210BF047
:1049B000BFFB00023618642120460BF0B9FB084605
:1049C0000A210BF0B5FB000136180A2120460BF036
:1049D000AFFB701880B20999C0B2088068460079B0
:1049E000FFF7EAFE089908706846C078FFF7E4FE12
:1049F000287068464079FFF7DFFE0A9908700120A9
:104A0000FEBD0020E7E730B53222012400280AD09D
:104A1000002512280AD003071B0F092B01D82428D0
:104A200007D9104630BD0C70002030BD0D700C2031
:104A300030BD0209122807D90A20521E4243D0185D
:104A4000801EC0B20D7030BD0A204243D018C0B2E3
:104A50000C7030BD01461339062902D90F390229DD
:104A600001D8123804E001462039012902D818384B
:104A7000C0B27047014610390229FAD9411E0829EF
:104A8000F7D9002801D00020704712207047002875
:104A900005D0B64A1146491EFDD1401EFAD17047D5
:104AA000F7B58AB008A8467A14463046FFF70EFFDD
:104AB000C5B2002E05D0152E03D0302E01D0452EC4
:104AC00003D10821AA480BF076FBAA480178684672
:104AD000C08D0029C0B2089008A8007B079008A8E4
:104AE000C07A069008A8807A059047D028460E38EC
:104AF000102802D310380E2801D2C5B203E02C2DA5
:104B000001D32C3DEDB29C48994F007800282ED05F
:104B1000002D2FD00DF08CFA690878541021204612
:104B20000BF049FB08982070079860700698A070F9
:104B3000059808F015FC8500304608F011FC0F219F
:104B40000BF0F6FA2818E070FF20207138786071B9
:104B50007878A071B878E071F8782072387960724E
:104B60007879A072B879E072F879207373E0E80779
:104B7000CED1D3E70DF05CFA3870CFE701A904A8D5
:104B80000DF074FA002000212154401C1028FADB9B
:104B90007A4801687A4800680BF062FE06D27748CE
:104BA0000168774800680BF093FB00E00020099053
:104BB0006F480A380068016872480068814201D96C
:104BC0000D1A00E00025089820700798607006987C
:104BD000A070059808F0C4FB8700304608F0C0FBC1
:104BE0000F210BF0A5FA3818E070002020716649FB
:104BF00009980BF075FB0BF0BCFD6071000AA07109
:104C0000E571280A207201987D216843C9000BF0E4
:104C10008FFA6072000AA0725C495D4A09681368E5
:104C20000020994201D9C81A80B2E072000A2073AC
:104C3000142E05D0292E03D0442E01D0592E0AD18E
:104C40004B480A38006803684E4803604C480368C4
:104C50004A480360116001200DB0F0BD014609070C
:104C600000B5090F00200B000BF05AFF10090B0DC7
:104C70000F11131517191B1D1F212123250A302081
:104C800000BD312000BD322000BD332000BD3420E6
:104C900000BD352000BD362000BD372000BD3820C6
:104CA00000BD392000BD412000BD422000BD432091
:104CB00000BD442000BD452000BD10B58AB0694646
:104CC000112008723348026A4A70016A0A0A69466A
:104CD0008A70016A0A0C6946CA70016A0A0E69463E
:104CE0000A71426A4A71406AC021000A0843694653
:104CF000887100240C70684670DF002803D0264AB3
:104D00002649FFF7A1FA03A809F075F824A009F0D5
:104D1000BFFB03A809F0BCFB24A009F0B9FB69465E
:104D20001120087203A80BF065FA82B203A902A849
:104D30007CDF002804D01949174A2631FFF784FA8E
:104D40000894282168460994018478214184FF2130
:104D500084849131C18408A87ADF00282AD00F49C1
:104D60000D4A303124E000001422002036070000F4
:104D70003E2000206620002065200020A02000208A
:104D8000B0230020982000200000C842AC20002062
:104D90009C20002040000010044601001C0500007B
:104DA0004465764E616D653A000000000A0000001F
:104DB000FFF74AFA0AB023E41FB5FE48C17900297B
:104DC00023D00121C1711421FB480BF0F4F9FA48FA
:104DD0000021017041600172F84A028241826846F6
:104DE00007F00DFA002804D0B521F54AC900FFF7F5
:104DF0002BFA062000F0DFFCEF4873DF002803D019
:104E0000EF4AF049FFF720FA1FBD0221DAE7ED492A
:104E100010B5EB4A3131FFF717FA5DE5E94910B5F6
:104E2000E74A3B31FFF710FA56E5E64910B5E44A88
:104E30006A31FFF709FA4FE5F8B5DE4D0288002424
:104E4000203D382A02D16C772C77EC760126172A80
:104E500033D00CDCDC49102A1AD0112A30D0132AA6
:104E600015D1D44AE88D143200217FDF08E0192AD9
:104E700048D0392A01D0552A09D11321E88D76DF8F
:104E80000746380003D0CE4AD049FFF7DDF9F8BD18
:104E90002E730C70C749AE71CC718088E8854C7256
:104EA000A87D012801D10A20E876C94800780028A9
:104EB000EDD1FFF7D7F96C72F8BDFFF73AFAF8BDFC
:104EC0002C730C702C710020AC76C043E88507F081
:104ED000B9F8002804D0BD49B94A4139FFF7B4F9FF
:104EE00005F000F8071E04D0D121B54AC900FFF72C
:104EF000ABF92C76EC75A87B0028C2D1FFF75CFFDC
:104F00006E73BEE780790028D9D1A87B0028D6D15E
:104F1000FFF752FF6E73F8BD10B5044600881028E5
:104F200005D1A5483822214614300BF02BF9204634
:104F300007F02CF8204606F0DBF89E482038817DEB
:104F4000012905D0017E002902D1C07D002804D0AE
:104F500099482146343804F0DDFE97482146503800
:104F600005F0A5F82046FFF767FFB5E410B505F09A
:104F7000E9FAB1E410B58F4986B00831954862DF8F
:104F8000002804D091498E4A8631FFF75DF904ACC0
:104F90009148A11C62DF002804D08C49884A8931DD
:104FA000FFF752F9A11C8D4862DF002804D0874921
:104FB000834A8C31FFF748F9A11C894862DF002839
:104FC00004D082497E4A8F31FFF73EF97A4820218A
:104FD00020380BF0F0F883480090202002907648AB
:104FE000694620380390804801907348343804F0B3
:104FF000FFFE002804D07549714A9C31FFF724F95F
:1050000004F07AFF002804D06C496D4A9D39FFF7FF
:105010001BF96948343804F052FF002804D067496E
:10502000674A9939FFF710F906B055E4614910B5A0
:105030000120203908766048143006F0A7FF5E4949
:1050400014310846483804F065FE45E410B5674958
:10505000012008706649087008F08EFD3CE40A28BB
:1050600001D2303000E03730C0B27047F1B590B0B7
:1050700004220720052101920624032702910490AF
:1050800001220223009703947821104609F0B2F818
:1050900009F08DF957495A20087009F08DF85648E3
:1050A0000025057055480570554805805548057020
:1050B0005548057008F0EFFF09F017F853480570E0
:1050C00009F041F852490820087009F057F8FFF735
:1050D000BDFF002008F0CFFF364E2046203EB575BC
:1050E000347008F0B7FF0124B474F4743475747527
:1050F000234622462146204608F069FF684604748C
:105100001D214174AC2181745024C4744626067557
:105110000599049808F0DFFC314620460DF046F969
:10512000002008F015FF3B491E2008703A49022371
:1051300008703A493A460F7039490B70014608F039
:1051400020FF38A103C9089010980991002802D0C7
:1051500008A808F0D0FC68464575072605758675D1
:10516000C57505760024684604750699059808F00B
:1051700078FD641C052CF6DB684685770676457657
:1051800086763021C176642181830799069808F0DC
:10519000BAFD264840680F900FA808F014FE234976
:1051A000142208310AA80AF0EDFF21A10AA80BF089
:1051B00035F841E0242000203C25002008080000AC
:1051C00004460100B90500006A200020C606000060
:1051D00066200020B82D0200C82D0200D82D020044
:1051E000E82D0200B94401000F4E010063200020A9
:1051F000602000201D220020ED200020EE20002055
:10520000F6200020EF200020F02000201B220020AC
:105210001C22002073200020742000207520002014
:105220007620002088888888FFFF00009C2D0200DF
:105230004A2D5374796C6500FEA10AA80AF0EEFFAE
:105240000AA808F0D0FDFD4808F0E7FD11B0F0BD58
:105250001CB58022002110436A46009110700A4656
:1052600001910321002007F0CDFD01AB6A46022128
:1052700007F018FE6A4650791CBD70477CB5802245
:10528000002110436A46009110700A4608460191B9
:1052900007F0B8FD01AB6A46022107F003FE0524C2
:1052A0006A46E7481457012505600A2000F079FA9C
:1052B000E34808380560082000F073FA20467CBDFA
:1052C000F0B50027A3B03846FFF7C2FFC0B2DD4DEE
:1052D0000024687103287DD0FA287BD02C71D9482E
:1052E00010300DF04BF80020FFF7C8FF68716846DA
:1052F000047508F04EF901F0DDFF05A808F017FC71
:105300006846007D0225022808D001273846FFF7AD
:10531000ADFE6846057505A808F09CFC14A808F0C9
:1053200084FF08F054FF08F019FF08F032FF08F07E
:10533000C4FE08F0F0FEC3480A3808F0A4FEC14ECF
:10534000203EB07D012800D0B475BE48203808F05A
:1053500089FE30781E2801D906203070B94B0B3BEE
:105360005A1E511E481E08F04BFEB6480F3808F072
:10537000F8FDB54808F059FDB44BB54AB549B648F3
:1053800008F00CFEB44908781E280CD91E200870BD
:10539000B04903220870AE492B460A70AB490D7024
:1053A000014608F0EEFD08F0CAFB02F0A0FD384609
:1053B0001526042700281CD003A808F046FD6846DF
:1053C000408A10388A2809D26846007C122805D8FD
:1053D000684600E00AE0C07B312858D9684646821A
:1053E00001210174C1738473467358E00120287150
:1053F00075E710A808F077FB10A80179C0780CF0C9
:10540000D5FF03A808F0B3F806A9002008F0A5F915
:105410008C49069810310A681060904A0F98106005
:105420008F4A106009688F480A6802608E4A0798A0
:1054300010608E4A099B13600A688D490A608D4985
:10544000086008A8807D00280FD108A8C07D00282A
:105450000BD16846468708A807762021C175082128
:105460008175302141750475457608A8427E6846ED
:10547000418F08A8007E6B4607C308A8C37D827DC4
:10548000417D007DFFF73CFA0028EED029E0684618
:10549000468207740721C1738473332141730473F7
:1054A0004574418AEAB2007C6D4607C56846C37BF5
:1054B000827B417B007BFFF723FA62491031086849
:1054C0000460694804606748046064480460644894
:1054D00004606648046008680168654801606548C2
:1054E000046008F08EFB12A808F0AFFC02221399AA
:1054F000129808F0CDFB23B0F0BD70B509F02BFA7F
:1055000001247D25ED00284605F02EFD641C052CA8
:10551000F9DB70BD704788B0FFF757F80020FFF740
:1055200097FE48498871FFF7CBFEFFF74EF803F06E
:1055300036FD5149012007F0C5F9002804D06D213E
:105540004E4A0901FEF780FE03F0FDFE3C490C20A7
:105550001C31086000F07AF9474A0A2164320820B9
:1055600007F058FB002804D0444A4549383AFEF772
:105570006BFE05F04EF8002803D0404A4149FEF783
:1055800063FE304D0024203DAC773F4801903F48FA
:1055900002906846847006F06BFE002804D0192142
:1055A000364A8901FEF750FEC82008F08DFFFFF74C
:1055B00084FBFFF7DFFC364800906946354804F06D
:1055C000AAFD002803D02D4A3349FEF73DFE1C21D9
:1055D00068460AF0F0FD052040040190801002901A
:1055E0000094032168460173C481012606742B4888
:1055F00006900594684605F0F0FC002804D0214987
:105600001E4A2439FEF720FE00F00EF9244A052137
:10561000012007F02DFA002804D01F49174A1B3932
:10562000FEF712FE03F002FA00200BF061FA0120EF
:1056300038E000004C696665566974001027000068
:1056400028070050242000206C2000207620002015
:10565000752000207420002073200020AC20002042
:105660009C200020A8200020B0230020F82000204B
:1056700098200020A0200020D82300203C460100D4
:105680006E0A00002F0600003D4501002B4E010070
:105690005D780100EC2400203A0700001D4E010057
:1056A00095BA010009F0DCFA1E2008F00BFEFEF7A7
:1056B0001FFE03F064FCFFF77FFB7648047076481A
:1056C000047000200BF014FA6E73002002F050FDFD
:1056D000724801210022C903006805F023FF06F08B
:1056E000ECFFEE77FEF7BEFD1420687202F0B2FB0D
:1056F0006B48047002F07FFB03F03DFC694FA87B10
:10570000002810D0E87B00280ED1EE73FEF700FED3
:1057100003F033FC74DF6C73002801D074DF6C730A
:105720000BF0BFF900E0EC73387800281FD008F0C8
:1057300050FF002008F01AFF5BA20221002008F0B1
:10574000A4FF08F034FA0A2005F00EFC684612DFC8
:10575000002803D0594A5A49FEF776FD684600787A
:10576000002804D0F0203ADFA02039DF2ADF07F03C
:10577000DDFA3DDF0028C2D0504A5249FEF764FDF1
:10578000BDE71CB56A461070517000200246014604
:10579000019007F037FB01AB6A46022107F082FB5C
:1057A0001CBD012181404848816070470121814032
:1057B0004548C160704700B59FB0062118A8017523
:1057C0004248434900681E90487B0A7B010211430E
:1057D00010A801863F48017A18A8817438216846CC
:1057E0000AF0E9FC01216846817081801DA80290C1
:1057F000684601821EA80590684601841CA809908D
:1058000038210EA80AF0D7FC022108A801760EA9BB
:10581000684605F08CFA002804D0AF21274AC90059
:10582000FEF712FD1FB000BD2A491E20143108806A
:10583000887801221043E1221040DF220C30104012
:1058400088700720C87010200871704710B50023B9
:1058500050222149082007F085F9002804D0194971
:10586000164A3839FEF7F0FC1C4807F098F9002872
:1058700004D01449114A3339FEF7E6FC184807F002
:1058800096F9002804D00F490C4A2F39FEF7DCFCAA
:1058900010BD000066200020B5230020BC200020A1
:1058A000A8250020642000204669726D776172652A
:1058B0002055706772616465000000003C4601007D
:1058C000C409000041070000000500509C2D0200A3
:1058D000B82D020024200020EC230020194F0100E5
:1058E0006D4F01000021C173C27B435C491CD2187B
:1058F000C2730F29F8DBD0B2704770B50D4604466D
:10590000FFF7F0FFE0732A462146FE4804F029FC29
:1059100070BD10B501461422FA4804F022FC10BDF7
:1059200070B50D460446FFF7DDFFE0732A462146B9
:10593000F44804F016FC082805D0002803D0F2A291
:105940004A21FEF781FC70BDF0B5F34987B0497874
:10595000002902D1F14A0121117001F0B8FF0025A0
:105960006C460028009501950295039568D0ED4896
:10597000EB4900680AF0B4FC0AF0FBFE0922694614
:10598000E94E0A703268116849024B0E69464B7045
:1059900011880B0A69468B701278CA70E3490A684D
:1059A00051024B0E69460B71130A4B718A71020C3E
:1059B000CA71020A0A72487204A905A80CF056FBC3
:1059C0003768049E38687D217043C9000AF0B0FB37
:1059D000000C6946887238687D217043C9000AF05E
:1059E000A7FB000A6946C87238687D217043C90068
:1059F0000AF09EFB69460873CD483C2100680AF016
:105A000097FB020A69464A738873CD7300206A4681
:105A1000D17B225C401C89186A46D1730F28F6DBC3
:105A200010226946B74804F09CFB082805D00028DE
:105A300003D0B5A27621FEF707FC012007B0F0BD28
:105A4000892020700020E17B225C401C8918E173D2
:105A50000F28F8DB10222146AA4804F082FB082810
:105A600005D0002803D0A8A28721FEF7EDFB002077
:105A7000E4E7F0B5AF4889B00078002878D000207E
:105A80006E4605463554401C1028FBDB4320307021
:105A9000F020A94C707008A920780870A7480A4621
:105AA00004A9007808F00DF808A909782778B94208
:105AB00001D1002829D00E21B01C0AF07CFBA0489F
:105AC0000178684681709F4801786846C1709E4899
:105AD000017868460171477100206A46D17B325CCB
:105AE000401C89186A46D1730F28F6DB10226946DC
:105AF000844804F036FB9549954E884225D131788B
:105B00000A2922D2491C317027E08D480178684665
:105B100081708C4801786846C1708B48017868466E
:105B200001714771017D8171417DC171817D01727A
:105B3000C17D4172017E8172417EC172817E01739D
:105B4000C17E4173017F8173C6E72178491C2170B2
:105B50003570082805D0002803D06BA2EE21FEF78F
:105B600073FB20785F2803D9724805702570357063
:105B700009B0F0BD70B5064667488EB04078002881
:105B80002DD1304601F0A3FE00246D46002805D03B
:105B9000707804A907F0E1FD002823D0C3216846EE
:105BA0000170447002202C54401C1028FBDB0020A4
:105BB0006A46D17B2A5C401C89186A46D1730F283B
:105BC000F6DB102269464F4804F0CBFA082806D0CD
:105BD000002804D0FF214CA23F31FEF735FB002006
:105BE0000EB070BD049800281CD05449707808701D
:105BF00068465349408E087008A85249007C0870D6
:105C000008A85149C07B08704A49012008705148D2
:105C10000460FFF72EFFFFF72CFFFFF72AFFFFF7C7
:105C200028FF20E02C54401C1028FBDB4321684651
:105C30000170FF21417000206A46D17B2A5C401C24
:105C400089186A46D1730F28F6DB102269462D4861
:105C500004F087FA082806D0002804D0FF212AA2E1
:105C60001831FEF7F1FA0120BAE7F0B58FB0064619
:105C700001F02DFE00246D46002805D0707804A99F
:105C800007F06BFD002823D087216846017044701F
:105C900002202C54401C1028FBDB00206A46D17BDC
:105CA0002A5C401C89186A46D1730F28F6DB102243
:105CB0006946144804F055FA082806D0002804D094
:105CC000FF2111A2AD31FEF7BFFA00200FB0F0BDE9
:105CD0006946401CCC731028FADB07270F704C7004
:105CE00070788870488EC87008A9087C6946087169
:105CF00008A9C87B694648710498000C887104980B
:105D0000000A29E0EC2400202E2E5C6576656E7476
:105D1000426C652E630000006020002008200020F7
:105D20000000C842B023002034200020AC20002016
:105D3000F82000201E200020C42000204C2000203D
:105D400058200020592000205A2000200330000055
:105D5000C520002054200020C871049808720D98B6
:105D6000000C48720D98000A88720D98C872F949A3
:105D700005980AF0B5FA0AF0FCFC020C69460A73B1
:105D8000020A4A73887300206A46D17B2A5C401C51
:105D900089186A46D1730F28F6DB10226946EE484F
:105DA00004F0DFF9082806D0002804D0FF21EB4AD0
:105DB0006F31FEF749FA684607700121417071782A
:105DC0008170418EC17008A8017C6846017108A8E5
:105DD000C17B6846417106980AF0CBFC002829D0A7
:105DE000020C69468A71020ACA7108723C2107983E
:105DF0000AF09EF9020A69464A728872CC72002043
:105E000003946A46D17B2A5C401C89186A46D17388
:105E10000F28F6DB10226946CF4804F0A2F90828C3
:105E200006D0002804D0FF21CC4A9731FEF70CFAA7
:105E300001204BE768468471C4710472D6E7F0B55F
:105E40008BB0064601F043FDA32100256C460028D7
:105E500072D00120305600284EDB7278052A4BD2D2
:105E60002274B1786174F178A1743179E1740022FF
:105E7000052125750120735C012B02D0002B06D073
:105E80000AE0237D074697403B43237504E0277DC6
:105E9000034693409F432775491C521C0C29EADB9B
:105EA0000599049807F0DDFE07A807F0CEFF02224F
:105EB0000899079807F0ECFE2321684601704570A9
:105EC00002202554401C1028FBDB00206A46D17BB1
:105ED000225C401C89186A46D1730F28F6DB102219
:105EE00069469D4804F03DF9082821D000281FD0BC
:105EF000FF219A4AFA3119E0217065700220255479
:105F0000401C1028FBDB0020E17B225C401C8A182F
:105F10002146E2730F28F7DB10228F4804F021F9A5
:105F2000082805D0002803D08C4A8D49FEF78CF94B
:105F300001200BB0F0BDFFE72554401C1028FBDB0F
:105F400021700020E17B225C401C8918E1730F283E
:105F5000F8DB10222146804804F003F9082806D017
:105F6000002804D07E497D4A1631FEF76DF90020E5
:105F7000DFE770B586B0054601F0A9FC00266C4647
:105F8000002833D069782174A9786174E978A17404
:105F90002979E1746979A175A979A1820599049893
:105FA00007F0B1FE00202654401C1028FBDB252101
:105FB00068460170C67300206A46D17B225C401C93
:105FC00089186A46D1730F28F6DB102269466248A9
:105FD00004F0C7F8082806D0002804D060495F4ABA
:105FE0004131FEF731F9012006B070BD2654401C46
:105FF0001028FBDBA5212170E6730020E17B225CE9
:10600000401C8918E1730F28F8DB10222146524802
:1060100004F0A7F8082806D0002804D050494F4AB9
:106020005531FEF711F90020DEE71FB501F04FFCF6
:1060300000246946002841D001204A4B4207DA601B
:10604000494A10704948847100200C54401C1028A3
:10605000FBDB12220A70CC730020CA7B0B5C401C55
:10606000D218CA730F28F8DB10223B4804F079F8E5
:10607000082806D0002804D03949384A9E31FEF756
:10608000E3F83B483B21008876DF082806D000284B
:1060900004D02B21314A0901FEF7D6F874DF3548C8
:1060A00004700020FEF7E2FF002008F05FFAFEF720
:1060B00018F907F03AFA012004B010BD0C54401C46
:1060C0001028FBDB92220A70CC730020CA7B0B5C89
:1060D000401CD218CA730F28F8DB10221E4804F0A7
:1060E00040F8082806D0002804D01D491B4ABE31BC
:1060F000FEF7AAF80020DFE71FB501F0E8FB00215A
:106100006A4600283BD000201154401C1028FBDBBD
:10611000382313701548D173C07800282CD05170E3
:106120000020D17B135C401CC9181346D1730F2883
:10613000F7DB10221946084804F013F8082806D0A7
:10614000002804D00649054AE131FEF77DF8012018
:10615000B2E700000000C842EC240020085D010006
:106160000D020000000500501220002060200020D9
:10617000322000201120002001205070D0E711545F
:10618000401C1028FBDBB8231370D1730020D17B97
:10619000135C401CC9181346D1730F28F7DB10227B
:1061A0001946FE4803F0DDFF082805D0002803D07B
:1061B000FB4AFC49FEF748F800207DE77FB506461C
:1061C00001F085FB00246D46002804D0307807F0EC
:1061D0004DFB002822D000940194029408216846C7
:1061E00003940170C47300206A46D17B2A5C401C72
:1061F00089186A46D1730F28F6DB10226946E748F2
:1062000003F0AFFF082806D0002804D03721E44A65
:106210000901FEF719F8002004B070BD0094019444
:1062200002940421684603940170C47300206A46F6
:10623000D17B2A5C401C89186A46D1730F28F6DB93
:1062400010226946D54803F08CFF082806D00028A4
:1062500004D0D449D24A5C31FDF7F6FF0120DBE7D8
:106260007FB5064601F033FB00246D4600282FD091
:106270007178CD48002902D0012903D003E0012123
:10628000C17000E0C47007F077FC00202C54401C63
:106290001028FBDB372168460170C47300206A4672
:1062A000D17B2A5C401C89186A46D1730F28F6DB23
:1062B00010226946B94803F054FF082806D0002888
:1062C00004D0B849B64A9031FDF7BEFF0120A3E7DC
:1062D0002C54401C1028FBDBB7212970EC730020E4
:1062E000E97B2A5C401C8918E9730F28F8DB10222F
:1062F0002946AA4803F035FF082806D0002804D014
:10630000A849A74AA431FDF79FFF002084E77FB585
:1063100000240646009401940294039401F0D7FAF5
:106320006D4600282CD07078B1780004090240181E
:10633000F1789D4E4018F06007F06FFDB4700120B9
:1063400001F016FF0B2168460170C47300206A46F5
:10635000D17B2A5C401C89186A46D1730F28F6DB72
:10636000102269468D4803F0FCFE082806D000285C
:1063700004D08C498A4AC331FDF766FF01204BE700
:106380002C54401C1028FBDB8B212970EC7300205F
:10639000E97B2A5C401C8918E9730F28F8DB10227E
:1063A00029467E4803F0DDFE082806D0002804D0E8
:1063B0007C497B4AD731FDF747FF00202CE77FB5AA
:1063C0000025009501950295039501F080FA6C4631
:1063D000002828D074480C3007F027FD4B20694670
:1063E00008707148C068020C4A70020A8A70C8704E
:1063F000CD7300206A46D17B225C401C89186A4616
:10640000D1730F28F6DB10226946644803F0A9FE19
:10641000082806D0002804D06249614AF331FDF70C
:1064200013FF0120F8E62554401C0F28FBDBCB218D
:106430002170E5730020E17B225C401C8918E17328
:106440000F28F8DB10222146544803F08AFE082862
:1064500005D0002803D0524A5449FDF7F5FE00202C
:10646000DAE67FB5064601F032FA00246D460028D0
:1064700005D071784C48002921D0012922D0002074
:106480002C54401C1028FBDB8F212970EC7300205A
:10649000E97B2A5C401C8918E9730F28F8DB10227D
:1064A00029463E4803F05DFE082806D0002804D0A7
:1064B0003E493B4AA631FDF7C7FE0020ACE601216C
:1064C000017000E0047007F057FB00202C54401CC2
:1064D0001028FBDB0F2168460170C47300206A4658
:1064E000D17B2A5C401C89186A46D1730F28F6DBE1
:1064F00010226946294803F034FE082806D00028F7
:1065000004D02A49264A9031FDF79EFE012083E6F9
:106510001FB501F0DCF900216A46002829D00020CF
:106520001154401C1028FBDB4F2010701E481346EE
:10653000007800281AD05170D1730020D97B135CE9
:10654000401CC9181346D1730F28F7DB10221946D7
:10655000124803F006FE082806D0002804D013498C
:106560000F4AC831FDF770FE0120A5E501205870E3
:10657000E2E71154401C1028FBDBCF231370D173CA
:106580000020D17B135C401CC9181346D1730F281F
:10659000F7DB1022194601480AE00000EC24002035
:1065A000085D0100020300006020002009040000D3
:1065B00003F0D7FD082805D0002803D0FA4AFB498C
:1065C000FDF742FE002077E530B587B001F07FF996
:1065D00000256C46002832D000202554401C10288D
:1065E000FBDB04A806F0C3FF6846017C4170417CD8
:1065F0008170817CC170C17C0171817D4171818A12
:10660000817126210170C57300206A46D17B225C0E
:10661000401C89186A46D1730F28F6DB10226946A0
:10662000E34803F09EFD082806D0002804D0DF4987
:10663000DD4A4C31FDF708FE012007B030BD25547E
:10664000401C1028FBDBA6212170E5730020E17BB4
:10665000225C401C8918E1730F28F8DB10222146C8
:10666000D34803F07EFD082806D0002804D0CF4987
:10667000CD4A6031FDF7E8FD0020DEE730B589B096
:10668000054601F024F9A42200216C46002866D0BA
:1066900000202154401C1028FBDB01202856002834
:1066A0003DDB687805283AD20020E17B225C401C63
:1066B00089182246E1730F28F7DB242111706878CE
:1066C00004A907F0DBFA6846017C4170417C8170C7
:1066D000817CC170C17C0171017D05200122431FB5
:1066E0000D46DD40EB0700D02254401C0C28F6DBA1
:1066F00000206A46D17B225C401C89186A46D1730F
:106700000F28F6DB10226946A94803F02AFD082865
:1067100022D0002820D0A549A34A9F311AE00020AA
:106720002154401C1028FBDB227061700020E17BAB
:10673000225C401C8918E1730F28F8DB10222146E7
:106740009B4803F00EFD082806D0002804D0974986
:10675000954AB431FDF778FD012009B030BD2154D0
:10676000401C1028FBDB22700020E17B225C401CD7
:106770008918E1730F28F8DB102221468C4803F0BA
:10678000F0FC082806D0002804D08849864AC93180
:10679000FDF75AFD0020E0E770B58EB0064601F027
:1067A00096F800256C46002837D0707804A906F0CA
:1067B000D4FF00216554491C1029FBDB7178684621
:1067C0004170418E817008A8017C6846C17008A89C
:1067D000C17B6846017108A80178684601730821E9
:1067E0000170C57300206A46D17B225C401C891869
:1067F0006A46D1730F28F6DB102269466C4803F015
:10680000B0FC082806D0002804D06849664AED315B
:10681000FDF71AFD01200EB070BD2554401C102854
:10682000FBDB88212170E5730020E17B225C401CAA
:106830008918E1730F28F8DB102221465C4803F029
:1068400090FC082805D0002803D0574A5949FDF785
:10685000FBFC0020DFE7F0B587B0054601F037F814
:10686000822700266C4600284FD0697928790BF0E2
:106870009DFD002818D06846077001202654401C52
:106880000F28FBDB6846C77310226946484803F0AF
:1068900068FC082806D0002804D04649424A3A310C
:1068A000FDF7D2FC07B0F0BD697868460174A9789D
:1068B0004174E97881742A79C27469790175104646
:1068C0000BF074FD0599049807F005F90020265493
:1068D000401C1028FBDB02206946087000206A4635
:1068E000D17B225C401C89186A46D1730F28F6DBE5
:1068F000102269462E4803F034FC0828D2D0002824
:10690000D0D02C49284A2C31CAE7277001202654C0
:10691000401C0F28FBDBE77310222146244803F0BC
:1069200020FC0828BED00028BCD022491E4A4B318A
:10693000B6E730B587B000F0CAFF00256C460028E6
:106940003AD004A807F0CFF800216554491C10295B
:10695000FBDB422168460170017C4170417C817003
:10696000817CC170C17C0171017D4171A01D07F066
:10697000C9F800216A46D07B625C491C80186A46CF
:10698000D0730F29F6DB10226946094803F0E9FBB2
:10699000082806D0002804D0CB21034AC900FDF7FF
:1069A00053FC012049E60000085D0100E5040000F9
:1069B000EC240020E7050000C221217001202554AD
:1069C000401C0F28FBDBE17310222146FE4803F038
:1069D000C8FB082805D0002803D0FC4AFC49FDF775
:1069E00033FC002029E6F0B58DB0054600F06FFFBE
:1069F000002866D007AC601D471C08AE09900998B6
:106A00000290E31CA21C611C0197009607A8FDF7E9
:106A1000A9FF0028F3D06C786846C480AE78067170
:106A2000EF78C770297981700A916979417009916D
:106A3000A97901700B91ED794571002C1ED0002EC3
:106A40001CD0C07FB84207D108A80078B04203D15B
:106A50006846408CA04206D0DE4901204871089962
:106A6000079807F0EAF9009601943B4602950A9AC6
:106A700009990B98FDF744FF0028F4D00020054643
:106A800003A90D54401C1028FBDB01246846047345
:106A9000C4761022CC4803F064FB082806D00028F6
:106AA00004D0CB49C94A2E31FDF7CEFBCA48047049
:106AB000FDF7D8FBC948CA490570062008700DB01B
:106AC000F0BD8122684602730120002103AB1954F6
:106AD000401C0F28FBDB6846C27610221946BA48D4
:106AE00003F03FFB0828EAD00028E8D0B849B74AAD
:106AF0004631FDF7A9FBE2E730B589B000F0E7FECB
:106B0000002503AC00283ED008A8013008AA411C8B
:106B10000092831E0290C21E019107A8411CFDF73E
:106B200021FF41206946087301202554401C10288C
:106B3000FBDB0846498C417308A8017868468173DD
:106B4000C17FC173817F0174417F4174017F817472
:106B500008A841786846C17400206A46D17E225C4C
:106B6000401C89186A46D1760F28F6DB102203A94B
:106B7000954803F0F6FA082825D0002823D0944938
:106B8000924A6B311DE0C1206946087301202554EB
:106B9000401C1028FBDB00206A46D17E225C401C92
:106BA00089186A46D1760F28F6DB102221468648DE
:106BB00003F0D7FA082806D0002804D08449834A75
:106BC0007D31FDF741FBC8E5F0B587B000F07FFEF1
:106BD00000246D46002877D000202C54401C10283B
:106BE000FBDB81487F49006809F07AFB09F0C1FDB1
:106BF000482269467D4E0A70326811680B0C69465E
:106C00004B7011880B0A69468B701278CA707849EC
:106C10000A6851024B0E69460B71130A4B718A7157
:106C2000020CCA71020A0A72487204A905A80BF084
:106C30001DFA3768049E3868704340D07D21C90032
:106C400009F076FA000C6946887238687D21704335
:106C5000C90009F06DFA000A6946C87238687D21DA
:106C60007043C90009F064FA69460873614900205D
:106C70000A68002A03D03C21104609F059FA020A9A
:106C800069464A738873CC7300206A46D17B2A5CBC
:106C9000401C89186A46D1730F28F6DB102269461A
:106CA000494803F05EFA082806D0002804D0484975
:106CB000464AB631FDF7C8FA0120F3E504E068461C
:106CC0008472C4720473D1E72C54401C1028FBDB7F
:106CD000C8212970EC730020E97B2A5C401C8918CC
:106CE000E9730F28F8DB10222946374803F039FAF8
:106CF000082806D0002804D03549344ACA31FDF7A7
:106D0000A3FA0020CEE57FB5064600F0E0FD0025A1
:106D10006C4600283DD07078992804D10021364A6D
:106D2000084605F08BFF00950195029513206A46F1
:106D30000395107001F08EF8304D288801F00AF8A4
:106D40006A4650706421288809F0F2F96A46907208
:106D500008460A2109F0ECF9000140186A46D07291
:106D60000020D17B225C401C89186A46D1730F2811
:106D7000F7DB10226946144803F0F3F9082805D020
:106D8000002803D0114A1E49FDF75EFA012004B025
:106D900070BD932100950195029503952170E573CF
:106DA0000020E17B225C401C8918E1730F28F8DB8E
:106DB00010222146044803F0D4F9082825D00028E1
:106DC00023D0024A0E491DE0EC240020085D01009A
:106DD00069060000602000200F2000200D20002008
:106DE000402200200000C842B023002034200020B0
:106DF000AC200020F8200020B97D01005C2000209C
:106E0000A40700001131FDF71FFA0020BFE71FB5EE
:106E100000F05DFD00226946002800920192029276
:106E200003922DD022200870FE48426AC023120A25
:106E30001A434A70426A0B468A70026A120ECA707E
:106E4000026A120C0A71026A120A4A71006A887197
:106E50000020DA7B0B5C401CD2180B46CA730F284B
:106E6000F7DB1022F04803F07CF9082805D0002851
:106E700003D0EE4AEE49FDF7E7F9012004B010BD5A
:106E8000A2230B70CA730020CA7B0B5C401CD21873
:106E9000CA730F28F8DB1022E34803F062F90828D0
:106EA00006D0002804D0E249E04A1131FDF7CCF9C0
:106EB0000020E3E71FB50020009001900290182207
:106EC000694603900A70C873CA7B0B5C401CD218D9
:106ED000CA730F28F8DB1022D34803F042F90828C0
:106EE00006D0002804D0D249D04A2631FDF7ACF9AB
:106EF0001FBD7FB500F0EBFC00246D460028009418
:106F000001940294039437D02720287036206870AB
:106F10003320A8703820E8700120287119226A7186
:106F2000A8712220E871FD2028720020FEF7A6F942
:106F30006946487202A80522BE49023009F022F9CA
:106F40006946CC7300206A46D17B2A5C401C8918B4
:106F50006A46D1730F28F6DB10226946B24803F067
:106F600000F9082806D0002804D0B149AF4A4A31B8
:106F7000FDF76AF901200AE7A7212970EC730020C8
:106F8000E97B2A5C401C8918E9730F28F8DB102282
:106F90002946A54803F0E5F8082806D0002804D0C3
:106FA000A349A24A5B31FDF74FF90020EFE61FB578
:106FB0000021009101910291DD236A460391137033
:106FC0005070D17308466946CA7B0B5C401CD218CE
:106FD000CA730F28F8DB1022934803F0C2F8082880
:106FE00006D0002804D09249904A7431FDF72CF95C
:106FF0001FBD1FB500F06BFC00226946002820D0A1
:1070000000200A54401C1028FBDB2E230B70CA738F
:107010000020CA7B0B5C401CD218CA730F28F8DB17
:107020001022814803F09DF8082806D0002804D0DB
:107030007F497E4A9231FDF707F9FDF7E6F8012016
:107040001CE7AE2300920192029203920B70CA7366
:107050000020CA7B0B5C401CD218CA730F28F8DBD7
:107060001022714803F07DF8082806D0002804D0CB
:107070006F496E4AA431FDF7E7F80020FEE6F0B54F
:1070800085B0044600F023FC002500287ED06A4F1E
:107090006A483D7005706A486A4A057061786A4BB3
:1070A000012000290BD0694E012910D0022929D0D6
:1070B000032940D0042955D0052953D053E010802E
:1070C000A2780C2A30D818706148057022E0187038
:1070D0005F480570A078182802D91820A07001E038
:1070E0000C2802D9C0B20C38A070C2B2E11C3046E4
:1070F00009F048F8A078855550483D700570504813
:10710000057030E01080A2780C2A0DD838705149F3
:107110001D7008704D48E11C0C3809F033F84B48DD
:10712000A1780C3845541EE048480C22E11C0C386C
:1071300009F028F817E04749387008701D70A078EA
:10714000182802D91820A07001E00C2802D9C0B27A
:107150000C38A070C2B2E11C304609F013F8A078D8
:10716000855500E015804D2069460870012168466C
:107170004554491C1029FBDBC5730021C27B435CCD
:10718000491CD218C2730F29F8DB00E00FE001465A
:107190001022254802F0E5FF082805D0002803D07A
:1071A000224A2D49FDF750F8012005B0F0BD0095A9
:1071B00001950295CD21684603950170C5730020A5
:1071C0006946CA7B0B5C401CD218CA730F28F8DBD7
:1071D0001022154802F0C5FF082806D0002804D068
:1071E0001D49124A1131FDF72FF80020DDE77FB568
:1071F00000F06DFB00256C46002800950195029576
:1072000003953CD046212170601C06F0E3FA6846E5
:10721000C57300216A46D07B625C80186A46D073D1
:10722000491C1BE040000010EC240020085D010018
:10723000D4070000A82300202520002026200020BD
:10724000272000203020002005200020B425002029
:107250000920002007200020F80800000F29D9DBB2
:1072600010226946F94802F07CFF082805D0002862
:1072700003D0F74AF749FCF7E7FF012087E5C6216D
:107280002170E5730020E17B225C401C8918E173CA
:107290000F28F8DB10222146EC4802F062FF082894
:1072A00006D0002804D0EB49E94A1031FCF7CCFFA6
:1072B00000206CE50020E8490246C300C318401CCA
:1072C000C0B2CA540528F8D37047F0B585B0002481
:1072D0000546009401940294039400F0F8FA6E4677
:1072E00000283DD0102030706978DC4F0120012942
:1072F0002ED03C70AA78DA49012A2BD00C70EB789A
:10730000D84A012B28D014702D79D74B012D25D0C8
:107310001C701B7812780978387806F058FE002027
:107320006A46D17B325C401C89186A46D1730F28AB
:10733000F6DB10226946C54802F013FF082805D085
:10734000002803D0C24AC949FCF77EFF01202CE780
:107350003870CFE70870D2E71070D5E71870D8E71B
:10736000C0213170F4730020F17B325C401C89181D
:10737000F1730F28F8DB10223146B44802F0F1FE19
:10738000082806D0002804D0B849B14A1031FCF7CB
:107390005BFF002009E71FB50024009401940294CC
:1073A000039400F094FA6946002824D01122AB48D7
:1073B0000A700278AA484A700278AA488A7002784D
:1073C000A948CA7002780A710020CA7B0B5C401C75
:1073D000D218CA730F28F8DB10229C4802F0C1FEB5
:1073E000082806D0002804D0A049994A2D31FCF77E
:1073F0002BFF012042E5C1220A70CC730020CA7B1A
:107400000B5C401CD218CA730F28F8DB10228F487F
:1074100002F0A7FE082806D0002804D093498C4A21
:107420003D31FCF711FF002028E57FB50025064619
:10743000009501950295039500F049FA6C460028E5
:1074400033D070788A4E012807D03570307806F036
:1074500012FE3078012803D00AE001203070F5E7F1
:107460008448854900780978084301D1FDF7DEFD9D
:10747000582168460170C57300206A46D17B225CA2
:10748000401C89186A46D1730F28F6DB1022694622
:107490006E4802F066FE082805D0002803D06C4A2A
:1074A0007649FCF7D1FE012071E4C8212170E57313
:1074B0000020E17B225C401C8918E1730F28F8DB77
:1074C00010222146614802F04CFE082806D0002810
:1074D00004D06A495E4A1031FCF7B6FE002056E43B
:1074E0001FB500200090019002900390552168463E
:1074F000017063480178684641701021FEF710FA68
:107500001FBD1FB5002200920192029203924378A0
:107510005C494A2B17D18378532B14D1C378542B51
:1075200011D10379592B0ED143794C2B0BD183798F
:10753000452B08D1C379462B05D1037A422B02D1C2
:10754000407A4B2809D08A722A2268460270897ACA
:1075500041701021FEF7E4F990E401208872F3E70E
:1075600070B588B0047869460C740146082202A8F8
:1075700008F008FEE0002518374E0922A9196846D0
:1075800008F000FE00247455694608780126362864
:107590005BD032DC112877D00CDC030009F0C0FA94
:1075A0001117869217DEE617A6AE9EA2C21717170E
:1075B000CEED1700252868D013DC222873D008DC14
:1075C000122871D0132802D10846FFF79CFB08B09F
:1075D00070BD232869D02428F9D10846FFF74EF85A
:1075E000F5E7262872D0272871D02A2870D02E28B7
:1075F000EDD10846FFF7FDFCE9E74B2869D00EDC2A
:107600003738030009F08CFA129EA20A0A0A0AE728
:107610000A0A0A5666760A0AC2965A0AD7E79628CE
:1076200070D033DC58286ED007DC4D286CD04F2842
:10763000CDD10846FEF76CFFC9E7592871D07728ED
:10764000C5D1084600F05DFAC1E7EDE0EC2400206A
:10765000085D010079090000C825002016200020DF
:10766000172000201820002019200020E10B000026
:107670001A2000201C2000201B200020F90C0000F4
:107680007920002060200020C2E042E0972871D0DD
:10769000FE4D98286FD099286ED0A92897D108461A
:1076A00000F061F993E769E054E02EE00846FFF747
:1076B0009AF98CE70846FFF71FFA88E70846FFF7B4
:1076C00083FA84E70846FFF7C6F880E725E049E03B
:1076D000C0E02BE00846FFF72CF978E70846FEF7F4
:1076E00033F974E7084600F001F970E70846FEF741
:1076F000BCFA6CE70846FEF73DFA68E70846FFF774
:107700004BF864E746E087E03CE00846FEF797FB6D
:107710005DE70846FEF72DFC59E70846FEF754FFE3
:1077200055E77DE00846FEF7F2FD50E70846FEF714
:1077300046FE4CE7084600F04AF948E70846FEF7DF
:1077400090FE44E70846FEF78BFD40E70846FEF74B
:10775000D3FC3CE70846FEF768FC38E70846FEF72E
:107760002DFD34E70846FFF7C4FB30E7084600F07C
:107770006BF92CE733E011E01EE045E00846FFF727
:1077800046FB24E70846FFF77AFC20E70846FFF7A8
:107790002EFD1CE7084600F000FA18E7084604949E
:1077A00005940694079400F092F8002802D0EC713A
:1077B000A82022E0BA2020E008460494059406940C
:1077C000079400F084F8002803D0EE712C72992001
:1077D00013E0BC2011E0084600F018FAF7E608466E
:1077E000049405940694079400F071F8002803D0DF
:1077F00005F09BFE972000E0A72069460874102141
:1078000004A8FEF78DF8E2E60846FFF75EFDDEE627
:107810000846FFF7C0FDDAE60846FFF706FED6E6A3
:10782000084600F03FFAD2E6084604940594069410
:10783000079400F04CF800280AD00124944D640706
:10784000AC601920400103F08FFBEC603620D4E7D8
:10785000C620D2E70846FFF754FEB8E67CB50D46D1
:1078600002F01CF8894C0922607AC100401889494D
:107870004018294608F086FC607A69460870294657
:1078800000A807220931013008F07CFC824A082157
:10789000684605F0D3F9607A401CC0B260720328D4
:1078A00001D9002060727CBD10B57C49097800299F
:1078B0000CD07B4C2168814201DD081A2060FEF764
:1078C000D8F82068042801DAFEF7D3F810BD0022AA
:1078D0001146435C491C9A18D2B20F29F9DBC07BD0
:1078E000904201D101207047002070471FB56D49BB
:1078F00000240C70FFF7EBFF694600280094019408
:107900000294039417D00A2008700020CA7B0B5CF5
:10791000401CD218CA730F28F8DB1022624802F00C
:1079200020FC082805D0002803D0604A9E21FCF7DF
:107930008BFC01205EE58A2008700020CA7B0B5C6E
:10794000401CD218CA730F28F8DB1022564802F0E8
:1079500008FC082805D0002803D0544AAF21FCF7C2
:1079600073FC002046E51FB50446FFF7B0FF002872
:107970002BD0637801204E490022002B02D0012B2E
:1079800002D004E04B4B00E04B4B18700A70002013
:1079900069460A54401C1028FBDBA9230B70CA73EC
:1079A0000020CA7B0B5C401CD218CA730F28F8DB7E
:1079B00010223D4802F0D5FB082806D0002804D04C
:1079C00051213A4AC900FCF73FFC012012E510B5ED
:1079D0008AB0FFF77CFF002834D00020014603ACBA
:1079E0002154401C1028FBDB47206946087308A877
:1079F000013008AA411C0092831E0290C21E019110
:107A000007A8411CFCF7AEFF0899079806F015FA85
:107A100000206A46D17E225C401C89186A46D176D5
:107A20000F28F6DB102203A91F4802F09AFB082852
:107A300005D0002803D01D4A2049FCF705FC134956
:107A4000012008710AB010BD1FB5FFF740FF0021EB
:107A50006A460028009101910291039136D00520D9
:107A600010700020D17B135C401CC9181346D173E1
:107A70000F28F7DB102219460B4802F072FB08288A
:107A800022D0002820D0094A0D491BE060200020A8
:107A900000050050C8250020617501001E2000204F
:107AA0005420002008200020EC240020085D010064
:107AB00082200020492000204A20002001050000EB
:107AC0006A070000FCF7C0FB012093E485231370D4
:107AD000D1730020D17B135C401CC9181346D173AD
:107AE0000F28F7DB102219468F4802F03AFB0828CE
:107AF00005D0002803D08D4A8D49FCF7A5FB002056
:107B000078E410B586B00446FFF7E1FE002841D0C6
:107B10000020009001900290039046206946087072
:107B20006078002804D001280CD002281FD024E05F
:107B3000A078E1780002401880B21022694605F072
:107B40008CFE1AE07B480178684601707A4801781B
:107B500068464170794801786846817078480178B4
:107B60006846C170774801786846017105E0E078A1
:107B70000874A07804AA05F0A2FF102269466A489A
:107B800002F0EFFA082805D0002803D0674A6E49B2
:107B9000FCF75AFB012006B010BD30B5044687B093
:107BA000002002900390049005902046FFF78FFE7E
:107BB000A625002822D06078694606F0A1F90028A1
:107BC00013D09620694608726078487248798872A6
:107BD0000879C872C87808738878487348788873B9
:107BE0000878C8738879087401E068460572102126
:107BF00002A8FDF795FE012007B030BD684605726A
:107C0000102102A8FDF78CFE0020F5E730B58FB0FB
:107C100000240546089409940A940B94FFF757FE34
:107C2000002835D03D2008AA107010211046FDF71D
:107C300077FE0E22691C03A808F0A4FA6A4694761F
:107C400003A806F0D0F808AA1120107403A808F0C1
:107C5000D1FA82B203A90CA87CDF002804D03A49EB
:107C6000324AEB31FCF7F0FA0EA801300EAA411CA3
:107C70000092831E0290C21E01910DA8411CFCF7C8
:107C800071FE0E990D9800F0AAFCFCF7BEFA06E012
:107C9000BD2008A90870102108A8FDF741FE0120A9
:107CA0000FB030BD1FB500240094019402940394DA
:107CB000FFF70DFE694600281BD0592223480A70A1
:107CC00002784A70CC730020CA7B0B5C401CD2182F
:107CD000CA730F28F8DB1022134802F042FA082872
:107CE00005D0002803D0114A1949FCF7ADFA01204C
:107CF00032E4C9220A70CC730020CA7B0B5C401CA2
:107D0000D218CA730F28F8DB1022074802F029FAAC
:107D1000082806D0002804D00D49044A1031FCF789
:107D200093FA002018E40000EC240020085D010014
:107D30008207000025220020262200202C2200207D
:107D40002822002027220020B70900001A20002046
:107D5000250D0000794A014613780020784A002B4F
:107D60000BD00520907077480069000CC007C00F49
:107D700001D00520704704207047FF2364339942E7
:107D800018D3FF207330814201D2012012E0FF207E
:107D90007B30814201D202200CE0FF2085308142FD
:107DA00001D2032006E0FF209130814201D204205D
:107DB00000E005209070704770B56348002404709F
:107DC000624901200870624908705E494007C86036
:107DD00060480078002803D05F483B21008876DFA8
:107DE0005E4D2878002801D074DF2C70FCF790FAE3
:107DF00008F057FE70BD70B5594E3088FFF7AAFFE6
:107E00004E49524C09784E4D08432178084311D011
:107E10003088FFF79FFF002811D0207800280ED06F
:107E2000A88800280BD1002626704C4C207800280A
:107E300006D009E04B20C000A880FFF7BDFF70BD51
:107E4000FCF7BAFF012020706E700AF0B9F9FCF758
:107E50004FFA70BDF8B54348012500240078AD0203
:107E600027460C2802D136490A2008703348017889
:107E70000120002902D03449087003E0324800781C
:107E800000282DD02F490420C86002210022084676
:107E900006F0A2FA002606F0C1FA80B2854200D9A7
:107EA0000546844200D204463F18761C0A2EF2DBB7
:107EB000781B001B4003010C4B22D2005143284881
:107EC000890A204B018004229A60FF225F3291428E
:107ED0000AD81D4900220A70FF215531018003E0B4
:107EE000FF201F4955300880FFF785FFF8BD144972
:107EF00004200870704710B51B490620087010490F
:107F000001204870FCF704FA08F0CBFD1148007816
:107F1000002801D0FFF7E4FA10BD10B51249062081
:107F200008700749002048700AF04AF909480078AB
:107F3000002801D0FFF7D4FA10BD00001420002063
:107F40007820002000050050512000205020002003
:107F50000F200020102000203220002011200020BF
:107F60005C2000200D20002088200020F1B500209A
:107F700084B0019004460090FE48406A029020467A
:107F80000A2148430026029935460F1A781BC8215A
:107F900008F0CEF8F8486D1C405C801986B20A2DB6
:107FA000F4DBF6480078864208D30098641C8019F8
:107FB00000900198401C01900A2CE0DB0499019884
:107FC0000870009805B0F0BDF0B585B00025684692
:107FD000E84C0571A07A401CC0B2A0720628F1D10D
:107FE000E748A5720068039006682046A76AC17931
:107FF0000291406A0090BE4218D1C82108F098F85A
:10800000DD484554029801286DD1A079401CC0B2CA
:10801000A0710A2835D3C821D74808F0CCF82571BB
:108020006562A57165712582E5715CE0BE4224D967
:10803000A571C82108F07CF8CF48F21B4254039880
:108040000068A0620298002818D1009863284AD3DB
:1080500001A8FFF78BFF694609790A290ED325820B
:10806000E16A0818E0620120E07125716571C8219C
:10807000C14808F0A0F86562A4E7A662E07901288B
:1080800031D1606A0A21009008F052F809292AD1FA
:10809000002637460098C821C01B08F049F8B648AA
:1080A0007F1C405C801906B20A2FF3DBB3480078CE
:1080B000864207DBE06A218A80194018E062258247
:1080C000257110E02079401CC0B22071022809D32C
:1080D000C821A94808F06FF825716562A571E5719E
:1080E000258200E02682606A401C60626AE77CB5F7
:1080F000A448A54C0178A24D206800290AD0A34EBF
:10810000012910D008F006FB316808F09FFB20D849
:1081100064207CBD29680A688242F9D264214A43FE
:108120000146104612E0694601A809F09FFF286841
:108130000068002805D0009948437D21C90007F058
:10814000F7FF21688842E3D26422504307F0F0FF32
:108150000CE0206808F0DEFA04468D49306808F02B
:10816000BFF8214608F0F9F808F003FBC0B27CBD67
:1081700070B50646FFF7BBFF0124864D002E1AD0CE
:10818000642817D32878002814D1834884490470C0
:108190008248047006200870FCF764F881490020CA
:1081A000087081490E20087007F045FD71492C7058
:1081B0000720087070BD6428FCD32C7070BDF0B52A
:1081C0007A480024007887B0002864D06C48694E53
:1081D0000568726B296891425DD000206F4671631B
:1081E0003C54401C1028FBDB68486949006808F0D3
:1081F00077F808F0BEFA092269460A702968490230
:108200004A0E69464A7029880A0A69468A702A789D
:10821000CA7029687163020C6946CA71020A0A723F
:10822000487204A905A809F021FF5548049D066875
:108230007D213068C900684307F07AFF000C694669
:10824000887230687D216843C90007F071FF000A19
:108250006946C87230687D216843C90007F068FF2D
:108260006946087352483C21006807F061FF020A22
:1082700069464A738873CC7300206A46D17B3A5CA6
:10828000401C89186A46D1730F28F6DB1022694614
:10829000484801F066FF48480078002806D0384872
:1082A00000680460394804603248846207B0F0BD59
:1082B00010B53048418A491C41823F480078002867
:1082C00003D109F08FFFFFF77AFF10BD10B500242E
:1082D00000E0641C394807F08DFFA042F9D810BDBA
:1082E000F8B5244C207A002811D0401E2072C00717
:1082F00006D01D2000F089FE207A002804D006E078
:108300001D2000F087FEF7E71D2000F083FE2C48BB
:108310002A4A01782B48244F00252B4E00297ED075
:1083200001781F4801701078002870D0A078274984
:10833000401CC0B2A0700978884201D8C00703D0A1
:108340001D2000F067FE02E01D2000F05EFE307888
:10835000002808D0134805701D480570FBF782FF00
:108360000920387035700E490320E0700870A0783D
:10837000184931E080200020542800201D220020D0
:1083800034200020702000206C200020B02300202A
:108390000000C842622000204B2000200F20002057
:1083A000402200200E2000200D2000200820002068
:1083B000F8200020EC24002012200020A825002016
:1083C00005200020042000204F20002074200020E1
:1083D0000B200020732000200978884203D8F84839
:1083E0000088002858D11D2000F014FE002006F05F
:1083F000BDF8F448A570057001203070FBF771FFDF
:10840000EF481E210180092045E008E0FFE7607881
:10841000401CC0B2607003283ED9EBA144E0ED4996
:108420000978002944D0EC490078087010780028B9
:1084300033D0A0780322401CC0B2A070E2700A7052
:10844000022801D8C00703D01D2000F0E3FD02E0A0
:108450001D2000F0DAFD3078002804D0DF480570D8
:10846000FBF700FF35700A203870DB4904200870E4
:10847000DB49A078097888420ED91D2000F0CAFD9A
:10848000002006F073F8D348A57005700120307005
:10849000FBF727FF0A203870F8BD6078401CC0B297
:1084A00060700328F8D9CFA1D04807F0B7FEF8BD17
:1084B000CF4801780820002932D038703078002861
:1084C00002D006F086F83570A078401CC0B2A070CB
:1084D000062810D8C00706D01D2000F09BFD002004
:1084E00006F044F80AE006F074F807F075FB1D206A
:1084F00000F08BFD02E01D2000F08CFD0320B6494A
:10850000E0700870A0780928D1D91D2000F082FD04
:10851000002006F02BF8FBF7E4FEA570B44831E02C
:10852000B4490978002931D038703078002802D059
:1085300006F04FF83570A078401CC0B2A070062835
:1085400010D8C00706D01D2000F064FD002006F002
:108550000DF80AE006F03DF807F060FB1D2000F082
:1085600054FD02E01D2000F055FDA07809289ED999
:108570001D2000F04FFD002005F0F8FFFBF7B1FED5
:108580009C48A570057001203070F8BD9A4E317876
:108590000029FAD03870A0780321401CC0B2A07026
:1085A0008D4AE170117008280ED2C00706D01D2038
:1085B00000F030FD002005F0D9FFF8BD1D2000F0CF
:1085C00024FD07F038FBF8BD1D2000F023FDA07846
:1085D0000C28F8D9FBF785FEA5703570F8BDF3B50A
:1085E000864897B0017810A8077F407F149010A8A4
:1085F000807F139010A8408C129018A8407811909A
:1086000018A80078109010A8C67F00297ED00EA868
:1086100005F01BFC08A8017E6846017708A8417E8A
:108620006846417708A8817E68468177C18F41847A
:1086300008A8417F4170017F0170C17E6846C17703
:108640006F48704A0178127800249143002900D0C5
:1086500004706D4D15A92868006800906B4800688B
:10866000019016A809F002FD2868006800287DD056
:10867000159948437D21C90007F05AFD08F04AF8D2
:10868000029063480068002871D003906148C06A76
:108690000990FFF72CFD69460874684604F0CAFF8C
:1086A000564D0AAA2B7808990798FCF7F9F90AAAF7
:1086B0000899079805F048F92878002861D05648AD
:1086C00056490078087005F010FD524DC8215448F5
:1086D000AC6207F070FD2C716C62AC714A48EC61C1
:1086E00000680460494804604948046043480470D5
:1086F0002C624C48AC6104706846EC6207771499B0
:108700004177139981771299418400E03BE008A8F2
:1087100011994170109901706846C6773A480EA9C0
:1087200000680068009001940FA809F09FFC36488B
:108730000E9900680068484339D0029434480068B4
:10874000002871D00390FFF7D2FC69460874684690
:1087500004F070FF6946488C08A9087208784872CE
:108760006946C87F08A98872CC7201E01BE01CE052
:108770000C730C940D940B940AAA0899079805F0B1
:10878000E3F819B0F0BD684607771499417713995B
:1087900081771299418408A811994170109901704C
:1087A0006846C6774CE702946BE703946EE77D2139
:1087B000C90007F0BDFC07F0ADFF0290BEE733E053
:1087C000302000200520002070686F6E65206361F6
:1087D0006C6C000007200020402200200B200020AD
:1087E000752000206D65737361676500A825002002
:1087F000492000204A2000204B2000206520002036
:10880000712000206620002034200020B0230020AA
:10881000F820002080200020EF200020F020002001
:10882000542800206220002003948CE7F7B584B020
:10883000002000900190029003906846877C1646C5
:10884000384604F08DFD85006846447C204604F0DF
:1088500087FD0F2107F06CFC2818C5B26846C18A55
:108860000170017D4170C17C8170384604F078FD53
:108870008700204604F074FD0F2107F059FC3918D9
:108880006846C170FF2101716C46022E0ED06D1C2E
:10889000EDB20020411C2018417148B20828F9DBD4
:1088A0002146284605F024F8012726E06D1CEDB28C
:1088B00009220821601D07F077FC6946284605F06B
:1088C00017F86D1E0822EDB21146601D07F06CFC12
:1088D0006946284605F00CF8E8E46D1E00207F1C70
:1088E000EDB2F9B22218401C40B251710828F9DBF0
:1088F0006946284604F0FCFF7FB2B742EDDBD5E4C1
:10890000F7B584B000200090019002900390684673
:10891000877C1546384604F023FD84006846467C73
:10892000304604F01DFD0F2107F002FC2018C4B2F0
:108930006846C18A0170017D4170C17C81703846F2
:1089400004F00EFD8700304604F00AFD0F2107F009
:10895000EFFB39186846C170002101710646012DF0
:108960000CD015DD641CE7B20821701D07F023FC54
:108970006946384604F0BCFF012416E0641CE4B2EA
:108980000821401D07F017FC6946204604F0B0FF9F
:108990008CE47F1EFFB20821701D07F00CFC6946B5
:1089A000384604F0A5FF641C64B2AC42F1DB7DE400
:1089B00010B586B0044604A8013004AA411C0092F8
:1089C000831E0290C21E019103A8411CFBF7CAFF3F
:1089D000FE49002008700F21204607F0A9FB00285F
:1089E00004D042B204990398FFF78AFF06B010BD85
:1089F00010B586B0044604A8013004AA411C0092B8
:108A0000831E0290C21E019103A8411CFBF7AAFF1E
:108A1000EE49012008700F21204607F089FB42B281
:108A200004990398FFF702FFE0E77047E948E84937
:108A3000416001218160E84801607047E849E748EA
:108A400008607047F3B5E74883B000780E46002809
:108A500005D0E5490888002801D0401E0880E34978
:108A60000878002801D0401E0870E14801780029EC
:108A700001D0491E0170DF480127017800290BD081
:108A8000491E0906090E017006D1DB4C207800282A
:108A900002D1FCF791F92770D8480024007801280A
:108AA0001CD1D7480078002818D0D6480178491C36
:108AB000C9B201703C2904D90470D348047001F094
:108AC0005FF8D2490878002808D0401E0006000E42
:108AD000087003D1CE481321008876DFC049BF4813
:108AE0000860CC480178002906D0491E0906090E05
:108AF000017001D1FFF7AEF9C7490878002806D008
:108B0000401E0006000E087001D100F0D5FEC34DD6
:108B1000E88A401C80B2E882782802D9EC82FFF70C
:108B2000E6F932466846039907F02CFB0120FFF76F
:108B30001FFBBB490878002801D0401E0870B948C7
:108B4000B94900780978084301D107F0A5FFB74873
:108B50000078002808D0B54EC0070BD01D2000F0CB
:108B600059FA3078401E3070B14EAC82307800280F
:108B700010D103E01D2000F048FAF2E7AD48AE49FD
:108B8000007809780843AD4909780843AC49097869
:108B900008431DD0E87A401CC0B2E8723C2803D8D4
:108BA00090480078002814D0EC72A5483470047006
:108BB000A0480470A0480470A04804701D2000F074
:108BC00029FAA048347007709F491E20088000E0F1
:108BD000EC729E4A9E48117800290CD0297B491CD2
:108BE000CBB22B73697B491C6973AC730470042B83
:108BF0000FD914700DE02C730178002909D0A97BDE
:108C0000491CC9B2A973012903D9AC7304708B48FC
:108C100007709048017800290BD0491E0906090EFB
:108C2000017006D18C4804708C4804708C48047024
:108C300037707D48007800287ED18A4A1178002953
:108C400004D0894803685918016014707548007889
:108C5000002803D1854800780C2808D17748347063
:108C60000470744804707448047075480470734943
:108C70003078097808436F49097808436E490978C4
:108C800008436F4909780843297A084305D0002131
:108C9000774A084603F0D2FF06E0644800780028CF
:108CA00002D11D2000F0B6F972480078002803D0E8
:108CB00001990098FFF793FC68464A4B06781978AB
:108CC0003046084322D15C48404A0078127810436D
:108CD00008430BD16848019900680268009805F0C4
:108CE0003BF855490028087000D0AC7051483D4908
:108CF00000780978084309D102220199009804F00C
:108D0000C7FF4C490028087000D0AC7057495B4839
:108D10000A78062A0CD10278594B521CD2B2027042
:108D200006201870052A04D356480C70077027488F
:108D30000470592E09D100E034E001990098FFF742
:108D40004EFC0199009809F039FB68468078232889
:108D500028D168464078592824D1592E22D14A4931
:108D60000888002801D0401E088005F094F9474883
:108D700047490078087005F0B8F93F48C8210068F5
:108D800004604448AC6207F016FAEC622C716C6225
:108D90003548AC71046040480460EC61AC613F4808
:108DA0002C62047005B0F0BD10B51D2000F032F942
:108DB0001A4C607A002804D0206C02F013FC0020CA
:108DC00060722A496420087010BD000066200020EF
:108DD000FFFF3B0000050140000001403546526E98
:108DE00000060140142000207C2000201F200020CD
:108DF0005220002053200020112000201A200020A3
:108E000010200020202000201D20002021200020F4
:108E10003220002078200020012100208020002026
:108E20007220002050200020122000204720002027
:108E300005200020492000204A2000200720002093
:108E40004B2000204F200020302000200A2000204E
:108E500009200020062000202520002026200020B8
:108E600027200020C3220020F82000200D20002011
:108E7000E182010065200020342000204D200020E8
:108E8000402200200F200020F6200020EF200020AC
:108E9000F020002054280020B02300206220002071
:108EA00070B55F4886B043685E4C5F4A216B8B4269
:108EB000436801D9591A03E0591A01231B06C9183E
:108EC000914242D3406820635848594E0168491C7A
:108ED0000160E07800280BD03178002908D1401ECD
:108EE0000006000EE07003D1FFF75EFFFBF7F9F913
:108EF000504D287800280BD03178002908D1401E29
:108F00000006000E287003D14B490870FBF7E9F901
:108F100004A8013004AA411C0092831E0290C21EC4
:108F2000019103A8411CFBF71DFD287800280ED0F5
:108F3000424A082103A803F081FEA08A401C80B2A7
:108F4000A082142801D9FBF760F906B070BD082192
:108F500003A8FFF777FDF0E710B53248C17B491C45
:108F6000C9B2C173062905D90021C173344A084624
:108F700003F064FE28E7704770477047704710B5EC
:108F80003048284C0078E070607A002806D1002232
:108F90008321206C02F0C6FA0120607214E708B544
:108FA0000020294B05220421009002F020FA00281D
:108FB00003D026A22949FBF747F91A48284A01217C
:108FC000383002F066FA002804D024491FA2491D57
:108FD000FBF73AF91348234A01213C3002F059FAD1
:108FE000002804D01D4919A20A31FBF72DF90D48BC
:108FF0001D4A0121403002F04CFA002804D01749E4
:1090000012A20F31FBF720F908BD0121814017485A
:1090100081607047012181401448C16070470000A1
:10902000001501408020002010270000142200209D
:1090300014200020402200200C200020458A01003E
:109040007D94010004200020EC2500202E2E5C746D
:10905000696D65426C652E630000000055060000D6
:10906000B1820100A18E0100598F0100000500505E
:109070000A1AD0B2704710B5BD490A78BD49002A16
:109080002ED0BD4B8A781C78BC4B0A2A03D29C5444
:10909000521C8A7010BD00215A1852785A54491C2B
:1090A0000929F9DB5C720028F4D059781878FFF7A9
:1090B000DFFF0528EED3D9799878FFF7D9FF032889
:1090C000E8D8597A187AFFF7D3FF0528E2D3BFF31F
:1090D0004F8FAC49AA48C860BFF34F8F00BFFDE770
:1090E0000020887010BD10B5A7480168491C0160B8
:1090F000A6480078002801D1FFF741FF10BD10B548
:10910000A1480168491C0160FFF739FF10BD704795
:1091100070B5FEF7ECFE9648007800281FD19C4DF4
:109120009C4A287811789C4B084319789B4C08433B
:1091300021780843954909788843012100280FD0F8
:1091400000202870107018702070954A4807D06071
:109150009448017094491E200880FBF7C2F870BD46
:109160008448C1720170FBF77DF870BDF8B5814C81
:109170000025A07A0126022700280ED0A5720F2014
:1091800000F0F0F8012801D1E5712771102000F0FE
:10919000E9F8002801D126726771A089002801D062
:1091A000401EA081A079002802D0012855D140E0BE
:1091B000112000F0D7F801280AD0E0897349401C3B
:1091C00080B2E0810978002927D0E581A6712EE0E0
:1091D000E078002804D0401E0006000EE0703CD16C
:1091E000A671E7700120FFF746FF68480078002865
:1091F00033D1E089642830D8A189002902D0A58123
:1092000066702AE0192828D21420A0815E480168DF
:10921000491C0160FFF77CFF1FE0642804D9607AD5
:10922000002804D1667202E0642800D26572E770FB
:1092300013E0112000F096F8002801D0E581F6E750
:10924000E078002804D0401E0006000EE07004D133
:10925000E770A5710020FFF70EFFE079002802D02B
:1092600001282BD124E00F2000F07CF8012824D124
:109270002079002804D0401E0006000E20711DD168
:109280003B48E671067049484B49067048480670ED
:109290004848067006200870FAF7E4FF4749142092
:1092A0000870812005F035F9302005F032F905E02D
:1092B0000F2000F057F800280BD02771207A0028E3
:1092C00022D0012826D1102000F04CF800282ED002
:1092D0001FE02079002804D0401E0006000E2071F7
:1092E000ECD13448E5710570FEF7B4FD33480178E0
:1092F000142900D005701E483249057030480570A9
:10930000267203200870D9E7102000F02BF80128FE
:1093100001D06771F8BD6079002804D0401E0006B6
:10932000000E6071F6D1264826720670F8BD60798D
:10933000002804D0401E0006000E6071F6D12048BF
:1093400025720570F8BD0B4810B500231E4A022196
:10935000103003F08BF9002803D01CA21F49FAF744
:1093600073FF10BD0E490969C140C807C00F70479F
:1093700014200020C8200020142200201C290020D6
:109380000400FA0500ED00E0342200201220002045
:1093900005200020492000204A200020072000202E
:1093A000000500504F2000203020002051200020D8
:1093B0000F200020B4230020402200200D20002098
:1093C0004820002078200020660600002E2E5C62D7
:1093D0007574746F6E426C652E6300002A02000083
:1093E00070B5FA4C2078002801D101202070F8488F
:1093F000006900250004C00F002829D0FAF732FFC9
:109400006079F44A401CC0B2607102211170F24AC6
:109410000328117023D96571A079401CC0B2A071D6
:10942000012812D00122002105F09AFCA079401CED
:10943000C0B2A071642812D96571A571002005F031
:1094400095F808F0BDFE012070BD01221146EBE742
:109450006571A571002005F089F8FAF742FF002038
:1094600070BD10B5D948C179491CC9B2C1710A296A
:1094700003D10021C171FEF7EDFC10BDF0B591B034
:10948000FFF774FED548D64E00780025002801D09D
:1094900010200DE0D3480078002804D0307814283C
:1094A00007D0357005E0D0480078002801D01120A1
:1094B0003070CE4930780978C44C884206D0CB4908
:1094C0000870002005F052F8012020723078C84F53
:1094D0000E287DD009DC030007F022FB0B194C613C
:1094E00082FE60606060FDFC6000152871D007DCC2
:1094F0000F38030007F014FB06F4F3F25252F15256
:109500001A2867D01B2866D01D2847D13CE0B548F3
:109510000078002801D0FFF7A4FF06A8013006AAB2
:10952000411C0092831E0290C21E019105A8411C9D
:10953000FBF718FAAF480088FEF70CFCA94AAE4BBF
:10954000217A12781B78009003950193029204917E
:109550006846C37D027E417D807D05F0C3FFA14941
:1095600038780978884319D03D70207A0028CCD10A
:109570000120D5E0A14800220068237A006801217B
:1095800007E03D700220CBE09D48237A00220121B4
:10959000006806F0DDF838780028F2D179E19A48C1
:1095A00098490068009006F09BFE07F0E2F86421FD
:1095B00006F0BEFD21610191009807F0DAF80199EB
:1095C000237ACAB2022106F0C3F83878002803E0F3
:1095D000B2E094E04DE05EE0E0D03D7003209FE01B
:1095E0000FA910A808F042FD88480F9900780028BC
:1095F00082480068006819D0484307F08BF8844916
:1096000006F0ABFE009007F09BF8642106F0A6FD83
:10961000C8B201907B49009806F09FFE07F0A9F8B8
:10962000237A0421019A06F093F861E0484307F099
:1096300071F8774906F091FE07F0AFF8754A764B5E
:1096400006F088FF07F0E6F8009007F079F864214B
:1096500006F084FDC8B201906A49009806F07DFECC
:1096600007F087F8237A0321019ADCE73D70152083
:1096700056E0607800280BD0237A172206216089F3
:1096800006F066F83878002835D03D701B2047E09A
:109690001B203070F6E7A07800282DD0237A1722FF
:1096A0000721207906F054F85C48017800291FD082
:1096B000484A0621117005702079002801D0401E0B
:1096C000207104F012FD5A2168460177A178417794
:1096D000E17806E039E035E024E0CDE0BAE03DE0B5
:1096E0002CE081772179C177102107A8FCF718F9C0
:1096F00038780028BAD1CCE015203070D4E73C216E
:10970000E06806F015FD3C2106F012FD0A46237ABA
:10971000052106F01DF83878002802D03D7004209D
:109720003070B6E0FEF7E3FCC0B20022217A06F00A
:10973000B1F90FE03D70ABE025720BE0207A06F046
:1097400099FA07E0227A012101E0227A02213448C5
:1097500006F043F938780028ECD19AE0FFF740FE94
:10976000002831D01D48254F05702E48C8210570AE
:109770003570386805602C4805602C4806F01BFDE4
:109780002B48304905702B4805602B4805702B4845
:1097900005701D4805601A48E560056028480560A9
:1097A00038682A4F00680860274805603878002824
:1097B00003D1FBF701FB0120387025490120087017
:1097C00014203070FAF721FD63E00000EC20002047
:1097D000000500504022002083200020122000209D
:1097E0000D20002014200020502000200E200020FA
:1097F000C82000205C200020102000203420002001
:10980000AC2000200000C842B023002060200020CF
:1098100000007A44AC1C5A643BDFE33FE8200020A0
:10982000A825002079200020A8200020542800200E
:1098300084200020A420002086200020C6200020B4
:109840009C20002098200020A02000201120002033
:109850004E200020207A002802D005F08EF8657294
:10986000607A401CC0B260720A2812D30A48642190
:109870000170FAF736FD0CE0207A002802D005F0DE
:109880006AF86572607A401CC0B26072642800D3C6
:109890003570257211B0F0BD0E20002010B50C48B7
:1098A0001E2141700178002905D10121017032216A
:1098B0000F2001F00EFC10BD10B5054801780029FD
:1098C00005D0002101709621282001F002FC10BD76
:1098D0000021002010B5FE4CE1682069884210D0BC
:1098E0002821FC4A484381188B78012B0AD0105A52
:1098F000183197DF002804D1207C401C4007400F1E
:10990000206110BD105A8988002295DFF2E738B532
:109910000546F14A684601210280022484702889A4
:109920006A4690DF010003D0284600F0F0FA38BD07
:10993000E748047038BD38B50446E848018CFF2973
:1099400003D0818DFF2908D014E0C08B6946401CEC
:1099500008804880208993DF06E0408D6946401CDE
:1099600008804880208993DF010003D0204600F062
:10997000CEFA38BDD6490420087038BDFEB50E4673
:10998000C98807460846FF380B3807D0093005D08C
:10999000002913D0384600F0BAFAFEBDCF48C18B7B
:1099A000002909D0418A002906D0408D002803D023
:1099B0003846FFF7C0FFFEBD0521EBE7C74800248E
:1099C00001460A3102910C31223025460191009066
:1099D00016E00A2068438419E189C1480E34091849
:1099E00009D0C048081819D0BD49C91CC84206D1C1
:1099F0002146029801E02146019800F0B4FA6D1C5E
:109A0000B089A842E5D8002C0BD020896946401CBB
:109A10000880B24800894880384605E02146009811
:109A2000EBE7AE493846891D00F083FAFEBDF7B575
:109A3000A84D00241646A64F303D5EE0787803001E
:109A400007F06EF809060B10151A1E2328375A0066
:109A50000198005D287201204DE00198005D687258
:109A6000022048E00198005DA872032043E00198BD
:109A7000005DE87204203EE00198005D287339E043
:109A80000198005D6873062035E00198005DE8816B
:109A9000072030E00199E889095D09020843E8815F
:109AA000082078708B482038B86100203881F88011
:109AB00022E038891F2805D20199BA69095D11543D
:109AC000401C3881F888401C80B2F880E9898142C6
:109AD00012D13889202801D11F20388180B2E88135
